{"abi":[{"inputs":[{"internalType":"address","name":"_manager","type":"address"},{"internalType":"uint256","name":"_minContribution","type":"uint256"}],"stateMutability":"nonpayable","type":"constructor"},{"inputs":[{"internalType":"uint256","name":"_index","type":"uint256"}],"name":"approveRequest","outputs":[],"stateMutability":"nonpayable","type":"function"},{"inputs":[{"internalType":"address","name":"","type":"address"}],"name":"approvers","outputs":[{"internalType":"bool","name":"","type":"bool"}],"stateMutability":"view","type":"function"},{"inputs":[],"name":"approversCount","outputs":[{"internalType":"uint256","name":"","type":"uint256"}],"stateMutability":"view","type":"function"},{"inputs":[],"name":"contribute","outputs":[],"stateMutability":"payable","type":"function"},{"inputs":[{"internalType":"string","name":"_description","type":"string"},{"internalType":"uint256","name":"_value","type":"uint256"},{"internalType":"address","name":"_recipient","type":"address"}],"name":"createRequest","outputs":[],"stateMutability":"nonpayable","type":"function"},{"inputs":[{"internalType":"uint256","name":"_index","type":"uint256"}],"name":"finalizeRequest","outputs":[],"stateMutability":"nonpayable","type":"function"},{"inputs":[],"name":"manager","outputs":[{"internalType":"address","name":"","type":"address"}],"stateMutability":"view","type":"function"},{"inputs":[],"name":"minContribution","outputs":[{"internalType":"uint256","name":"","type":"uint256"}],"stateMutability":"view","type":"function"},{"inputs":[{"internalType":"uint256","name":"","type":"uint256"}],"name":"requests","outputs":[{"internalType":"string","name":"description","type":"string"},{"internalType":"uint256","name":"value","type":"uint256"},{"internalType":"address","name":"recipient","type":"address"},{"internalType":"bool","name":"complete","type":"bool"},{"internalType":"uint256","name":"approvalCount","type":"uint256"}],"stateMutability":"view","type":"function"}],"devdoc":{"kind":"dev","methods":{},"version":1},"evm":{"assembly":"    /* \"Campaign.sol\":390:2507  contract Campaign {... */\n  mstore(0x40, 0x80)\n    /* \"Campaign.sol\":950:1082  constructor(address _manager, uint _minContribution) {... */\n  callvalue\n  dup1\n  iszero\n  tag_1\n  jumpi\n  0x00\n  dup1\n  revert\ntag_1:\n  pop\n  mload(0x40)\n  sub(codesize, bytecodeSize)\n  dup1\n  bytecodeSize\n  dup4\n  codecopy\n  dup2\n  dup2\n  add\n  0x40\n  mstore\n  dup2\n  add\n  swap1\n  tag_2\n  swap2\n  swap1\n  tag_3\n  jump\t// in\ntag_2:\n    /* \"Campaign.sol\":1023:1031  _manager */\n  dup2\n    /* \"Campaign.sol\":1013:1020  manager */\n  0x00\n  dup1\n    /* \"Campaign.sol\":1013:1031  manager = _manager */\n  0x0100\n  exp\n  dup2\n  sload\n  dup2\n  0xffffffffffffffffffffffffffffffffffffffff\n  mul\n  not\n  and\n  swap1\n  dup4\n  0xffffffffffffffffffffffffffffffffffffffff\n  and\n  mul\n  or\n  swap1\n  sstore\n  pop\n    /* \"Campaign.sol\":1059:1075  _minContribution */\n  dup1\n    /* \"Campaign.sol\":1041:1056  minContribution */\n  0x01\n    /* \"Campaign.sol\":1041:1075  minContribution = _minContribution */\n  dup2\n  swap1\n  sstore\n  pop\n    /* \"Campaign.sol\":950:1082  constructor(address _manager, uint _minContribution) {... */\n  pop\n  pop\n    /* \"Campaign.sol\":390:2507  contract Campaign {... */\n  jump(tag_6)\n    /* \"#utility.yul\":7:150   */\ntag_8:\n  0x00\n    /* \"#utility.yul\":95:101   */\n  dup2\n    /* \"#utility.yul\":89:102   */\n  mload\n    /* \"#utility.yul\":80:102   */\n  swap1\n  pop\n    /* \"#utility.yul\":111:144   */\n  tag_10\n    /* \"#utility.yul\":138:143   */\n  dup2\n    /* \"#utility.yul\":111:144   */\n  tag_11\n  jump\t// in\ntag_10:\n    /* \"#utility.yul\":70:150   */\n  swap3\n  swap2\n  pop\n  pop\n  jump\t// out\n    /* \"#utility.yul\":156:299   */\ntag_12:\n  0x00\n    /* \"#utility.yul\":244:250   */\n  dup2\n    /* \"#utility.yul\":238:251   */\n  mload\n    /* \"#utility.yul\":229:251   */\n  swap1\n  pop\n    /* \"#utility.yul\":260:293   */\n  tag_14\n    /* \"#utility.yul\":287:292   */\n  dup2\n    /* \"#utility.yul\":260:293   */\n  tag_15\n  jump\t// in\ntag_14:\n    /* \"#utility.yul\":219:299   */\n  swap3\n  swap2\n  pop\n  pop\n  jump\t// out\n    /* \"#utility.yul\":305:745   */\ntag_3:\n  0x00\n  dup1\n    /* \"#utility.yul\":441:443   */\n  0x40\n    /* \"#utility.yul\":429:438   */\n  dup4\n    /* \"#utility.yul\":420:427   */\n  dup6\n    /* \"#utility.yul\":416:439   */\n  sub\n    /* \"#utility.yul\":412:444   */\n  slt\n    /* \"#utility.yul\":409:411   */\n  iszero\n  tag_17\n  jumpi\n    /* \"#utility.yul\":457:458   */\n  0x00\n    /* \"#utility.yul\":454:455   */\n  dup1\n    /* \"#utility.yul\":447:459   */\n  revert\n    /* \"#utility.yul\":409:411   */\ntag_17:\n    /* \"#utility.yul\":500:501   */\n  0x00\n    /* \"#utility.yul\":525:589   */\n  tag_18\n    /* \"#utility.yul\":581:588   */\n  dup6\n    /* \"#utility.yul\":572:578   */\n  dup3\n    /* \"#utility.yul\":561:570   */\n  dup7\n    /* \"#utility.yul\":557:579   */\n  add\n    /* \"#utility.yul\":525:589   */\n  tag_8\n  jump\t// in\ntag_18:\n    /* \"#utility.yul\":515:589   */\n  swap3\n  pop\n    /* \"#utility.yul\":471:599   */\n  pop\n    /* \"#utility.yul\":638:640   */\n  0x20\n    /* \"#utility.yul\":664:728   */\n  tag_19\n    /* \"#utility.yul\":720:727   */\n  dup6\n    /* \"#utility.yul\":711:717   */\n  dup3\n    /* \"#utility.yul\":700:709   */\n  dup7\n    /* \"#utility.yul\":696:718   */\n  add\n    /* \"#utility.yul\":664:728   */\n  tag_12\n  jump\t// in\ntag_19:\n    /* \"#utility.yul\":654:728   */\n  swap2\n  pop\n    /* \"#utility.yul\":609:738   */\n  pop\n    /* \"#utility.yul\":399:745   */\n  swap3\n  pop\n  swap3\n  swap1\n  pop\n  jump\t// out\n    /* \"#utility.yul\":751:847   */\ntag_20:\n  0x00\n    /* \"#utility.yul\":817:841   */\n  tag_22\n    /* \"#utility.yul\":835:840   */\n  dup3\n    /* \"#utility.yul\":817:841   */\n  tag_23\n  jump\t// in\ntag_22:\n    /* \"#utility.yul\":806:841   */\n  swap1\n  pop\n    /* \"#utility.yul\":796:847   */\n  swap2\n  swap1\n  pop\n  jump\t// out\n    /* \"#utility.yul\":853:979   */\ntag_23:\n  0x00\n    /* \"#utility.yul\":930:972   */\n  0xffffffffffffffffffffffffffffffffffffffff\n    /* \"#utility.yul\":923:928   */\n  dup3\n    /* \"#utility.yul\":919:973   */\n  and\n    /* \"#utility.yul\":908:973   */\n  swap1\n  pop\n    /* \"#utility.yul\":898:979   */\n  swap2\n  swap1\n  pop\n  jump\t// out\n    /* \"#utility.yul\":985:1062   */\ntag_25:\n  0x00\n    /* \"#utility.yul\":1051:1056   */\n  dup2\n    /* \"#utility.yul\":1040:1056   */\n  swap1\n  pop\n    /* \"#utility.yul\":1030:1062   */\n  swap2\n  swap1\n  pop\n  jump\t// out\n    /* \"#utility.yul\":1068:1190   */\ntag_11:\n    /* \"#utility.yul\":1141:1165   */\n  tag_28\n    /* \"#utility.yul\":1159:1164   */\n  dup2\n    /* \"#utility.yul\":1141:1165   */\n  tag_20\n  jump\t// in\ntag_28:\n    /* \"#utility.yul\":1134:1139   */\n  dup2\n    /* \"#utility.yul\":1131:1166   */\n  eq\n    /* \"#utility.yul\":1121:1123   */\n  tag_29\n  jumpi\n    /* \"#utility.yul\":1180:1181   */\n  0x00\n    /* \"#utility.yul\":1177:1178   */\n  dup1\n    /* \"#utility.yul\":1170:1182   */\n  revert\n    /* \"#utility.yul\":1121:1123   */\ntag_29:\n    /* \"#utility.yul\":1111:1190   */\n  pop\n  jump\t// out\n    /* \"#utility.yul\":1196:1318   */\ntag_15:\n    /* \"#utility.yul\":1269:1293   */\n  tag_31\n    /* \"#utility.yul\":1287:1292   */\n  dup2\n    /* \"#utility.yul\":1269:1293   */\n  tag_25\n  jump\t// in\ntag_31:\n    /* \"#utility.yul\":1262:1267   */\n  dup2\n    /* \"#utility.yul\":1259:1294   */\n  eq\n    /* \"#utility.yul\":1249:1251   */\n  tag_32\n  jumpi\n    /* \"#utility.yul\":1308:1309   */\n  0x00\n    /* \"#utility.yul\":1305:1306   */\n  dup1\n    /* \"#utility.yul\":1298:1310   */\n  revert\n    /* \"#utility.yul\":1249:1251   */\ntag_32:\n    /* \"#utility.yul\":1239:1318   */\n  pop\n  jump\t// out\n    /* \"Campaign.sol\":390:2507  contract Campaign {... */\ntag_6:\n  dataSize(sub_0)\n  dup1\n  dataOffset(sub_0)\n  0x00\n  codecopy\n  0x00\n  return\nstop\n\nsub_0: assembly {\n        /* \"Campaign.sol\":390:2507  contract Campaign {... */\n      mstore(0x40, 0x80)\n      jumpi(tag_1, lt(calldatasize, 0x04))\n      shr(0xe0, calldataload(0x00))\n      dup1\n      0x82fde093\n      gt\n      tag_11\n      jumpi\n      dup1\n      0x82fde093\n      eq\n      tag_6\n      jumpi\n      dup1\n      0x8a9cfd55\n      eq\n      tag_7\n      jumpi\n      dup1\n      0xaaffadf3\n      eq\n      tag_8\n      jumpi\n      dup1\n      0xd7bb99ba\n      eq\n      tag_9\n      jumpi\n      dup1\n      0xd7d1bbdb\n      eq\n      tag_10\n      jumpi\n      jump(tag_1)\n    tag_11:\n      dup1\n      0x03441006\n      eq\n      tag_2\n      jumpi\n      dup1\n      0x0a144391\n      eq\n      tag_3\n      jumpi\n      dup1\n      0x481c6a75\n      eq\n      tag_4\n      jumpi\n      dup1\n      0x81d12c58\n      eq\n      tag_5\n      jumpi\n    tag_1:\n      0x00\n      dup1\n      revert\n        /* \"Campaign.sol\":2094:2505  function finalizeRequest(uint _index) public onlyOwner {... */\n    tag_2:\n      callvalue\n      dup1\n      iszero\n      tag_12\n      jumpi\n      0x00\n      dup1\n      revert\n    tag_12:\n      pop\n      tag_13\n      0x04\n      dup1\n      calldatasize\n      sub\n      dup2\n      add\n      swap1\n      tag_14\n      swap2\n      swap1\n      tag_15\n      jump\t// in\n    tag_14:\n      tag_16\n      jump\t// in\n    tag_13:\n      stop\n        /* \"Campaign.sol\":673:714  mapping(address => bool) public approvers */\n    tag_3:\n      callvalue\n      dup1\n      iszero\n      tag_17\n      jumpi\n      0x00\n      dup1\n      revert\n    tag_17:\n      pop\n      tag_18\n      0x04\n      dup1\n      calldatasize\n      sub\n      dup2\n      add\n      swap1\n      tag_19\n      swap2\n      swap1\n      tag_20\n      jump\t// in\n    tag_19:\n      tag_21\n      jump\t// in\n    tag_18:\n      mload(0x40)\n      tag_22\n      swap2\n      swap1\n      tag_23\n      jump\t// in\n    tag_22:\n      mload(0x40)\n      dup1\n      swap2\n      sub\n      swap1\n      return\n        /* \"Campaign.sol\":612:634  address public manager */\n    tag_4:\n      callvalue\n      dup1\n      iszero\n      tag_24\n      jumpi\n      0x00\n      dup1\n      revert\n    tag_24:\n      pop\n      tag_25\n      tag_26\n      jump\t// in\n    tag_25:\n      mload(0x40)\n      tag_27\n      swap2\n      swap1\n      tag_28\n      jump\t// in\n    tag_27:\n      mload(0x40)\n      dup1\n      swap2\n      sub\n      swap1\n      return\n        /* \"Campaign.sol\":774:814  mapping(uint => Request) public requests */\n    tag_5:\n      callvalue\n      dup1\n      iszero\n      tag_29\n      jumpi\n      0x00\n      dup1\n      revert\n    tag_29:\n      pop\n      tag_30\n      0x04\n      dup1\n      calldatasize\n      sub\n      dup2\n      add\n      swap1\n      tag_31\n      swap2\n      swap1\n      tag_15\n      jump\t// in\n    tag_31:\n      tag_32\n      jump\t// in\n    tag_30:\n      mload(0x40)\n      tag_33\n      swap6\n      swap5\n      swap4\n      swap3\n      swap2\n      swap1\n      tag_34\n      jump\t// in\n    tag_33:\n      mload(0x40)\n      dup1\n      swap2\n      sub\n      swap1\n      return\n        /* \"Campaign.sol\":720:746  uint public approversCount */\n    tag_6:\n      callvalue\n      dup1\n      iszero\n      tag_35\n      jumpi\n      0x00\n      dup1\n      revert\n    tag_35:\n      pop\n      tag_36\n      tag_37\n      jump\t// in\n    tag_36:\n      mload(0x40)\n      tag_38\n      swap2\n      swap1\n      tag_39\n      jump\t// in\n    tag_38:\n      mload(0x40)\n      dup1\n      swap2\n      sub\n      swap1\n      return\n        /* \"Campaign.sol\":1355:1725  function createRequest(string memory _description, uint _value, address _recipient) public onlyOwner {... */\n    tag_7:\n      callvalue\n      dup1\n      iszero\n      tag_40\n      jumpi\n      0x00\n      dup1\n      revert\n    tag_40:\n      pop\n      tag_41\n      0x04\n      dup1\n      calldatasize\n      sub\n      dup2\n      add\n      swap1\n      tag_42\n      swap2\n      swap1\n      tag_43\n      jump\t// in\n    tag_42:\n      tag_44\n      jump\t// in\n    tag_41:\n      stop\n        /* \"Campaign.sol\":640:667  uint public minContribution */\n    tag_8:\n      callvalue\n      dup1\n      iszero\n      tag_45\n      jumpi\n      0x00\n      dup1\n      revert\n    tag_45:\n      pop\n      tag_46\n      tag_47\n      jump\t// in\n    tag_46:\n      mload(0x40)\n      tag_48\n      swap2\n      swap1\n      tag_39\n      jump\t// in\n    tag_48:\n      mload(0x40)\n      dup1\n      swap2\n      sub\n      swap1\n      return\n        /* \"Campaign.sol\":1088:1349  function contribute() public payable {... */\n    tag_9:\n      tag_49\n      tag_50\n      jump\t// in\n    tag_49:\n      stop\n        /* \"Campaign.sol\":1731:2088  function approveRequest(uint _index) public {... */\n    tag_10:\n      callvalue\n      dup1\n      iszero\n      tag_51\n      jumpi\n      0x00\n      dup1\n      revert\n    tag_51:\n      pop\n      tag_52\n      0x04\n      dup1\n      calldatasize\n      sub\n      dup2\n      add\n      swap1\n      tag_53\n      swap2\n      swap1\n      tag_15\n      jump\t// in\n    tag_53:\n      tag_54\n      jump\t// in\n    tag_52:\n      stop\n        /* \"Campaign.sol\":2094:2505  function finalizeRequest(uint _index) public onlyOwner {... */\n    tag_16:\n        /* \"Campaign.sol\":875:882  manager */\n      0x00\n      dup1\n      sload\n      swap1\n      0x0100\n      exp\n      swap1\n      div\n      0xffffffffffffffffffffffffffffffffffffffff\n      and\n        /* \"Campaign.sol\":861:882  msg.sender == manager */\n      0xffffffffffffffffffffffffffffffffffffffff\n      and\n        /* \"Campaign.sol\":861:871  msg.sender */\n      caller\n        /* \"Campaign.sol\":861:882  msg.sender == manager */\n      0xffffffffffffffffffffffffffffffffffffffff\n      and\n      eq\n        /* \"Campaign.sol\":853:926  require(msg.sender == manager, \"Only the manager can call this function\") */\n      tag_56\n      jumpi\n      mload(0x40)\n      0x08c379a000000000000000000000000000000000000000000000000000000000\n      dup2\n      mstore\n      0x04\n      add\n      tag_57\n      swap1\n      tag_58\n      jump\t// in\n    tag_57:\n      mload(0x40)\n      dup1\n      swap2\n      sub\n      swap1\n      revert\n    tag_56:\n        /* \"Campaign.sol\":2159:2182  Request storage request */\n      0x00\n        /* \"Campaign.sol\":2185:2193  requests */\n      0x05\n        /* \"Campaign.sol\":2185:2201  requests[_index] */\n      0x00\n        /* \"Campaign.sol\":2194:2200  _index */\n      dup4\n        /* \"Campaign.sol\":2185:2201  requests[_index] */\n      dup2\n      mstore\n      0x20\n      add\n      swap1\n      dup2\n      mstore\n      0x20\n      add\n      0x00\n      keccak256\n        /* \"Campaign.sol\":2159:2201  Request storage request = requests[_index] */\n      swap1\n      pop\n        /* \"Campaign.sol\":2220:2227  request */\n      dup1\n        /* \"Campaign.sol\":2220:2236  request.complete */\n      0x02\n      add\n      0x14\n      swap1\n      sload\n      swap1\n      0x0100\n      exp\n      swap1\n      div\n      0xff\n      and\n        /* \"Campaign.sol\":2219:2236  !request.complete */\n      iszero\n        /* \"Campaign.sol\":2211:2274  require(!request.complete, \"The request was already finalized\") */\n      tag_60\n      jumpi\n      mload(0x40)\n      0x08c379a000000000000000000000000000000000000000000000000000000000\n      dup2\n      mstore\n      0x04\n      add\n      tag_61\n      swap1\n      tag_62\n      jump\t// in\n    tag_61:\n      mload(0x40)\n      dup1\n      swap2\n      sub\n      swap1\n      revert\n    tag_60:\n        /* \"Campaign.sol\":2334:2335  2 */\n      0x02\n        /* \"Campaign.sol\":2317:2331  approversCount */\n      sload(0x03)\n        /* \"Campaign.sol\":2317:2335  approversCount / 2 */\n      tag_63\n      swap2\n      swap1\n      tag_64\n      jump\t// in\n    tag_63:\n        /* \"Campaign.sol\":2292:2299  request */\n      dup2\n        /* \"Campaign.sol\":2292:2313  request.approvalCount */\n      0x04\n      add\n      sload\n        /* \"Campaign.sol\":2292:2336  request.approvalCount > (approversCount / 2) */\n      gt\n        /* \"Campaign.sol\":2284:2405  require(request.approvalCount > (approversCount / 2), \"The request has to be approved by at least half the contributors\") */\n      tag_65\n      jumpi\n      mload(0x40)\n      0x08c379a000000000000000000000000000000000000000000000000000000000\n      dup2\n      mstore\n      0x04\n      add\n      tag_66\n      swap1\n      tag_67\n      jump\t// in\n    tag_66:\n      mload(0x40)\n      dup1\n      swap2\n      sub\n      swap1\n      revert\n    tag_65:\n        /* \"Campaign.sol\":2423:2430  request */\n      dup1\n        /* \"Campaign.sol\":2423:2440  request.recipient */\n      0x02\n      add\n      0x00\n      swap1\n      sload\n      swap1\n      0x0100\n      exp\n      swap1\n      div\n      0xffffffffffffffffffffffffffffffffffffffff\n      and\n        /* \"Campaign.sol\":2415:2450  payable(request.recipient).transfer */\n      0xffffffffffffffffffffffffffffffffffffffff\n      and\n        /* \"Campaign.sol\":2415:2465  payable(request.recipient).transfer(request.value) */\n      0x08fc\n        /* \"Campaign.sol\":2451:2458  request */\n      dup3\n        /* \"Campaign.sol\":2451:2464  request.value */\n      0x01\n      add\n      sload\n        /* \"Campaign.sol\":2415:2465  payable(request.recipient).transfer(request.value) */\n      swap1\n      dup2\n      iszero\n      mul\n      swap1\n      mload(0x40)\n      0x00\n      mload(0x40)\n      dup1\n      dup4\n      sub\n      dup2\n      dup6\n      dup9\n      dup9\n      call\n      swap4\n      pop\n      pop\n      pop\n      pop\n      iszero\n      dup1\n      iszero\n      tag_69\n      jumpi\n      returndatasize\n      0x00\n      dup1\n      returndatacopy\n      revert(0x00, returndatasize)\n    tag_69:\n      pop\n        /* \"Campaign.sol\":2494:2498  true */\n      0x01\n        /* \"Campaign.sol\":2475:2482  request */\n      dup2\n        /* \"Campaign.sol\":2475:2491  request.complete */\n      0x02\n      add\n      0x14\n        /* \"Campaign.sol\":2475:2498  request.complete = true */\n      0x0100\n      exp\n      dup2\n      sload\n      dup2\n      0xff\n      mul\n      not\n      and\n      swap1\n      dup4\n      iszero\n      iszero\n      mul\n      or\n      swap1\n      sstore\n      pop\n        /* \"Campaign.sol\":936:937  _ */\n      pop\n        /* \"Campaign.sol\":2094:2505  function finalizeRequest(uint _index) public onlyOwner {... */\n      pop\n      jump\t// out\n        /* \"Campaign.sol\":673:714  mapping(address => bool) public approvers */\n    tag_21:\n      mstore(0x20, 0x02)\n      dup1\n      0x00\n      mstore\n      keccak256(0x00, 0x40)\n      0x00\n      swap2\n      pop\n      sload\n      swap1\n      0x0100\n      exp\n      swap1\n      div\n      0xff\n      and\n      dup2\n      jump\t// out\n        /* \"Campaign.sol\":612:634  address public manager */\n    tag_26:\n      0x00\n      dup1\n      sload\n      swap1\n      0x0100\n      exp\n      swap1\n      div\n      0xffffffffffffffffffffffffffffffffffffffff\n      and\n      dup2\n      jump\t// out\n        /* \"Campaign.sol\":774:814  mapping(uint => Request) public requests */\n    tag_32:\n      mstore(0x20, 0x05)\n      dup1\n      0x00\n      mstore\n      keccak256(0x00, 0x40)\n      0x00\n      swap2\n      pop\n      swap1\n      pop\n      dup1\n      0x00\n      add\n      dup1\n      sload\n      tag_70\n      swap1\n      tag_71\n      jump\t// in\n    tag_70:\n      dup1\n      0x1f\n      add\n      0x20\n      dup1\n      swap2\n      div\n      mul\n      0x20\n      add\n      mload(0x40)\n      swap1\n      dup2\n      add\n      0x40\n      mstore\n      dup1\n      swap3\n      swap2\n      swap1\n      dup2\n      dup2\n      mstore\n      0x20\n      add\n      dup3\n      dup1\n      sload\n      tag_72\n      swap1\n      tag_71\n      jump\t// in\n    tag_72:\n      dup1\n      iszero\n      tag_73\n      jumpi\n      dup1\n      0x1f\n      lt\n      tag_74\n      jumpi\n      0x0100\n      dup1\n      dup4\n      sload\n      div\n      mul\n      dup4\n      mstore\n      swap2\n      0x20\n      add\n      swap2\n      jump(tag_73)\n    tag_74:\n      dup3\n      add\n      swap2\n      swap1\n      0x00\n      mstore\n      keccak256(0x00, 0x20)\n      swap1\n    tag_75:\n      dup2\n      sload\n      dup2\n      mstore\n      swap1\n      0x01\n      add\n      swap1\n      0x20\n      add\n      dup1\n      dup4\n      gt\n      tag_75\n      jumpi\n      dup3\n      swap1\n      sub\n      0x1f\n      and\n      dup3\n      add\n      swap2\n    tag_73:\n      pop\n      pop\n      pop\n      pop\n      pop\n      swap1\n      dup1\n      0x01\n      add\n      sload\n      swap1\n      dup1\n      0x02\n      add\n      0x00\n      swap1\n      sload\n      swap1\n      0x0100\n      exp\n      swap1\n      div\n      0xffffffffffffffffffffffffffffffffffffffff\n      and\n      swap1\n      dup1\n      0x02\n      add\n      0x14\n      swap1\n      sload\n      swap1\n      0x0100\n      exp\n      swap1\n      div\n      0xff\n      and\n      swap1\n      dup1\n      0x04\n      add\n      sload\n      swap1\n      pop\n      dup6\n      jump\t// out\n        /* \"Campaign.sol\":720:746  uint public approversCount */\n    tag_37:\n      sload(0x03)\n      dup2\n      jump\t// out\n        /* \"Campaign.sol\":1355:1725  function createRequest(string memory _description, uint _value, address _recipient) public onlyOwner {... */\n    tag_44:\n        /* \"Campaign.sol\":875:882  manager */\n      0x00\n      dup1\n      sload\n      swap1\n      0x0100\n      exp\n      swap1\n      div\n      0xffffffffffffffffffffffffffffffffffffffff\n      and\n        /* \"Campaign.sol\":861:882  msg.sender == manager */\n      0xffffffffffffffffffffffffffffffffffffffff\n      and\n        /* \"Campaign.sol\":861:871  msg.sender */\n      caller\n        /* \"Campaign.sol\":861:882  msg.sender == manager */\n      0xffffffffffffffffffffffffffffffffffffffff\n      and\n      eq\n        /* \"Campaign.sol\":853:926  require(msg.sender == manager, \"Only the manager can call this function\") */\n      tag_77\n      jumpi\n      mload(0x40)\n      0x08c379a000000000000000000000000000000000000000000000000000000000\n      dup2\n      mstore\n      0x04\n      add\n      tag_78\n      swap1\n      tag_58\n      jump\t// in\n    tag_78:\n      mload(0x40)\n      dup1\n      swap2\n      sub\n      swap1\n      revert\n    tag_77:\n        /* \"Campaign.sol\":1466:1492  Request storage newRequest */\n      0x00\n        /* \"Campaign.sol\":1495:1503  requests */\n      0x05\n        /* \"Campaign.sol\":1495:1518  requests[numRequests++] */\n      0x00\n        /* \"Campaign.sol\":1504:1515  numRequests */\n      0x04\n      0x00\n        /* \"Campaign.sol\":1504:1517  numRequests++ */\n      dup2\n      sload\n      dup1\n      swap3\n      swap2\n      swap1\n      tag_80\n      swap1\n      tag_81\n      jump\t// in\n    tag_80:\n      swap2\n      swap1\n      pop\n      sstore\n        /* \"Campaign.sol\":1495:1518  requests[numRequests++] */\n      dup2\n      mstore\n      0x20\n      add\n      swap1\n      dup2\n      mstore\n      0x20\n      add\n      0x00\n      keccak256\n        /* \"Campaign.sol\":1466:1518  Request storage newRequest = requests[numRequests++] */\n      swap1\n      pop\n        /* \"Campaign.sol\":1553:1565  _description */\n      dup4\n        /* \"Campaign.sol\":1528:1538  newRequest */\n      dup2\n        /* \"Campaign.sol\":1528:1550  newRequest.description */\n      0x00\n      add\n        /* \"Campaign.sol\":1528:1565  newRequest.description = _description */\n      swap1\n      dup1\n      mload\n      swap1\n      0x20\n      add\n      swap1\n      tag_82\n      swap3\n      swap2\n      swap1\n      tag_83\n      jump\t// in\n    tag_82:\n      pop\n        /* \"Campaign.sol\":1594:1600  _value */\n      dup3\n        /* \"Campaign.sol\":1575:1585  newRequest */\n      dup2\n        /* \"Campaign.sol\":1575:1591  newRequest.value */\n      0x01\n      add\n        /* \"Campaign.sol\":1575:1600  newRequest.value = _value */\n      dup2\n      swap1\n      sstore\n      pop\n        /* \"Campaign.sol\":1633:1643  _recipient */\n      dup2\n        /* \"Campaign.sol\":1610:1620  newRequest */\n      dup2\n        /* \"Campaign.sol\":1610:1630  newRequest.recipient */\n      0x02\n      add\n      0x00\n        /* \"Campaign.sol\":1610:1643  newRequest.recipient = _recipient */\n      0x0100\n      exp\n      dup2\n      sload\n      dup2\n      0xffffffffffffffffffffffffffffffffffffffff\n      mul\n      not\n      and\n      swap1\n      dup4\n      0xffffffffffffffffffffffffffffffffffffffff\n      and\n      mul\n      or\n      swap1\n      sstore\n      pop\n        /* \"Campaign.sol\":1675:1680  false */\n      0x00\n        /* \"Campaign.sol\":1653:1663  newRequest */\n      dup2\n        /* \"Campaign.sol\":1653:1672  newRequest.complete */\n      0x02\n      add\n      0x14\n        /* \"Campaign.sol\":1653:1680  newRequest.complete = false */\n      0x0100\n      exp\n      dup2\n      sload\n      dup2\n      0xff\n      mul\n      not\n      and\n      swap1\n      dup4\n      iszero\n      iszero\n      mul\n      or\n      swap1\n      sstore\n      pop\n        /* \"Campaign.sol\":1717:1718  0 */\n      0x00\n        /* \"Campaign.sol\":1690:1700  newRequest */\n      dup2\n        /* \"Campaign.sol\":1690:1714  newRequest.approvalCount */\n      0x04\n      add\n        /* \"Campaign.sol\":1690:1718  newRequest.approvalCount = 0 */\n      dup2\n      swap1\n      sstore\n      pop\n        /* \"Campaign.sol\":936:937  _ */\n      pop\n        /* \"Campaign.sol\":1355:1725  function createRequest(string memory _description, uint _value, address _recipient) public onlyOwner {... */\n      pop\n      pop\n      pop\n      jump\t// out\n        /* \"Campaign.sol\":640:667  uint public minContribution */\n    tag_47:\n      sload(0x01)\n      dup2\n      jump\t// out\n        /* \"Campaign.sol\":1088:1349  function contribute() public payable {... */\n    tag_50:\n        /* \"Campaign.sol\":1155:1170  minContribution */\n      sload(0x01)\n        /* \"Campaign.sol\":1143:1152  msg.value */\n      callvalue\n        /* \"Campaign.sol\":1143:1170  msg.value > minContribution */\n      gt\n        /* \"Campaign.sol\":1135:1226  require(msg.value > minContribution, \"You are trying to contribute less than the minimum.\") */\n      tag_85\n      jumpi\n      mload(0x40)\n      0x08c379a000000000000000000000000000000000000000000000000000000000\n      dup2\n      mstore\n      0x04\n      add\n      tag_86\n      swap1\n      tag_87\n      jump\t// in\n    tag_86:\n      mload(0x40)\n      dup1\n      swap2\n      sub\n      swap1\n      revert\n    tag_85:\n        /* \"Campaign.sol\":1241:1250  approvers */\n      0x02\n        /* \"Campaign.sol\":1241:1262  approvers[msg.sender] */\n      0x00\n        /* \"Campaign.sol\":1251:1261  msg.sender */\n      caller\n        /* \"Campaign.sol\":1241:1262  approvers[msg.sender] */\n      0xffffffffffffffffffffffffffffffffffffffff\n      and\n      0xffffffffffffffffffffffffffffffffffffffff\n      and\n      dup2\n      mstore\n      0x20\n      add\n      swap1\n      dup2\n      mstore\n      0x20\n      add\n      0x00\n      keccak256\n      0x00\n      swap1\n      sload\n      swap1\n      0x0100\n      exp\n      swap1\n      div\n      0xff\n      and\n        /* \"Campaign.sol\":1236:1305  if (!approvers[msg.sender]) {... */\n      tag_88\n      jumpi\n        /* \"Campaign.sol\":1278:1292  approversCount */\n      0x03\n      0x00\n        /* \"Campaign.sol\":1278:1294  approversCount++ */\n      dup2\n      sload\n      dup1\n      swap3\n      swap2\n      swap1\n      tag_89\n      swap1\n      tag_81\n      jump\t// in\n    tag_89:\n      swap2\n      swap1\n      pop\n      sstore\n      pop\n        /* \"Campaign.sol\":1236:1305  if (!approvers[msg.sender]) {... */\n    tag_88:\n        /* \"Campaign.sol\":1338:1342  true */\n      0x01\n        /* \"Campaign.sol\":1314:1323  approvers */\n      0x02\n        /* \"Campaign.sol\":1314:1335  approvers[msg.sender] */\n      0x00\n        /* \"Campaign.sol\":1324:1334  msg.sender */\n      caller\n        /* \"Campaign.sol\":1314:1335  approvers[msg.sender] */\n      0xffffffffffffffffffffffffffffffffffffffff\n      and\n      0xffffffffffffffffffffffffffffffffffffffff\n      and\n      dup2\n      mstore\n      0x20\n      add\n      swap1\n      dup2\n      mstore\n      0x20\n      add\n      0x00\n      keccak256\n      0x00\n        /* \"Campaign.sol\":1314:1342  approvers[msg.sender] = true */\n      0x0100\n      exp\n      dup2\n      sload\n      dup2\n      0xff\n      mul\n      not\n      and\n      swap1\n      dup4\n      iszero\n      iszero\n      mul\n      or\n      swap1\n      sstore\n      pop\n        /* \"Campaign.sol\":1088:1349  function contribute() public payable {... */\n      jump\t// out\n        /* \"Campaign.sol\":1731:2088  function approveRequest(uint _index) public {... */\n    tag_54:\n        /* \"Campaign.sol\":1793:1802  approvers */\n      0x02\n        /* \"Campaign.sol\":1793:1814  approvers[msg.sender] */\n      0x00\n        /* \"Campaign.sol\":1803:1813  msg.sender */\n      caller\n        /* \"Campaign.sol\":1793:1814  approvers[msg.sender] */\n      0xffffffffffffffffffffffffffffffffffffffff\n      and\n      0xffffffffffffffffffffffffffffffffffffffff\n      and\n      dup2\n      mstore\n      0x20\n      add\n      swap1\n      dup2\n      mstore\n      0x20\n      add\n      0x00\n      keccak256\n      0x00\n      swap1\n      sload\n      swap1\n      0x0100\n      exp\n      swap1\n      div\n      0xff\n      and\n        /* \"Campaign.sol\":1785:1849  require(approvers[msg.sender], \"You can't approve this request\") */\n      tag_91\n      jumpi\n      mload(0x40)\n      0x08c379a000000000000000000000000000000000000000000000000000000000\n      dup2\n      mstore\n      0x04\n      add\n      tag_92\n      swap1\n      tag_93\n      jump\t// in\n    tag_92:\n      mload(0x40)\n      dup1\n      swap2\n      sub\n      swap1\n      revert\n    tag_91:\n        /* \"Campaign.sol\":1868:1891  Request storage request */\n      0x00\n        /* \"Campaign.sol\":1894:1902  requests */\n      0x05\n        /* \"Campaign.sol\":1894:1910  requests[_index] */\n      0x00\n        /* \"Campaign.sol\":1903:1909  _index */\n      dup4\n        /* \"Campaign.sol\":1894:1910  requests[_index] */\n      dup2\n      mstore\n      0x20\n      add\n      swap1\n      dup2\n      mstore\n      0x20\n      add\n      0x00\n      keccak256\n        /* \"Campaign.sol\":1868:1910  Request storage request = requests[_index] */\n      swap1\n      pop\n        /* \"Campaign.sol\":1929:1936  request */\n      dup1\n        /* \"Campaign.sol\":1929:1946  request.approvals */\n      0x03\n      add\n        /* \"Campaign.sol\":1929:1958  request.approvals[msg.sender] */\n      0x00\n        /* \"Campaign.sol\":1947:1957  msg.sender */\n      caller\n        /* \"Campaign.sol\":1929:1958  request.approvals[msg.sender] */\n      0xffffffffffffffffffffffffffffffffffffffff\n      and\n      0xffffffffffffffffffffffffffffffffffffffff\n      and\n      dup2\n      mstore\n      0x20\n      add\n      swap1\n      dup2\n      mstore\n      0x20\n      add\n      0x00\n      keccak256\n      0x00\n      swap1\n      sload\n      swap1\n      0x0100\n      exp\n      swap1\n      div\n      0xff\n      and\n        /* \"Campaign.sol\":1928:1958  !request.approvals[msg.sender] */\n      iszero\n        /* \"Campaign.sol\":1920:1993  require(!request.approvals[msg.sender], \"You already voted this request\") */\n      tag_94\n      jumpi\n      mload(0x40)\n      0x08c379a000000000000000000000000000000000000000000000000000000000\n      dup2\n      mstore\n      0x04\n      add\n      tag_95\n      swap1\n      tag_96\n      jump\t// in\n    tag_95:\n      mload(0x40)\n      dup1\n      swap2\n      sub\n      swap1\n      revert\n    tag_94:\n        /* \"Campaign.sol\":2044:2048  true */\n      0x01\n        /* \"Campaign.sol\":2012:2019  request */\n      dup2\n        /* \"Campaign.sol\":2012:2029  request.approvals */\n      0x03\n      add\n        /* \"Campaign.sol\":2012:2041  request.approvals[msg.sender] */\n      0x00\n        /* \"Campaign.sol\":2030:2040  msg.sender */\n      caller\n        /* \"Campaign.sol\":2012:2041  request.approvals[msg.sender] */\n      0xffffffffffffffffffffffffffffffffffffffff\n      and\n      0xffffffffffffffffffffffffffffffffffffffff\n      and\n      dup2\n      mstore\n      0x20\n      add\n      swap1\n      dup2\n      mstore\n      0x20\n      add\n      0x00\n      keccak256\n      0x00\n        /* \"Campaign.sol\":2012:2048  request.approvals[msg.sender] = true */\n      0x0100\n      exp\n      dup2\n      sload\n      dup2\n      0xff\n      mul\n      not\n      and\n      swap1\n      dup4\n      iszero\n      iszero\n      mul\n      or\n      swap1\n      sstore\n      pop\n        /* \"Campaign.sol\":2058:2065  request */\n      dup1\n        /* \"Campaign.sol\":2058:2079  request.approvalCount */\n      0x04\n      add\n      0x00\n        /* \"Campaign.sol\":2058:2081  request.approvalCount++ */\n      dup2\n      sload\n      dup1\n      swap3\n      swap2\n      swap1\n      tag_97\n      swap1\n      tag_81\n      jump\t// in\n    tag_97:\n      swap2\n      swap1\n      pop\n      sstore\n      pop\n        /* \"Campaign.sol\":1731:2088  function approveRequest(uint _index) public {... */\n      pop\n      pop\n      jump\t// out\n    tag_83:\n      dup3\n      dup1\n      sload\n      tag_98\n      swap1\n      tag_71\n      jump\t// in\n    tag_98:\n      swap1\n      0x00\n      mstore\n      keccak256(0x00, 0x20)\n      swap1\n      0x1f\n      add\n      0x20\n      swap1\n      div\n      dup2\n      add\n      swap3\n      dup3\n      tag_100\n      jumpi\n      0x00\n      dup6\n      sstore\n      jump(tag_99)\n    tag_100:\n      dup3\n      0x1f\n      lt\n      tag_101\n      jumpi\n      dup1\n      mload\n      not(0xff)\n      and\n      dup4\n      dup1\n      add\n      or\n      dup6\n      sstore\n      jump(tag_99)\n    tag_101:\n      dup3\n      dup1\n      add\n      0x01\n      add\n      dup6\n      sstore\n      dup3\n      iszero\n      tag_99\n      jumpi\n      swap2\n      dup3\n      add\n    tag_102:\n      dup3\n      dup2\n      gt\n      iszero\n      tag_103\n      jumpi\n      dup3\n      mload\n      dup3\n      sstore\n      swap2\n      0x20\n      add\n      swap2\n      swap1\n      0x01\n      add\n      swap1\n      jump(tag_102)\n    tag_103:\n    tag_99:\n      pop\n      swap1\n      pop\n      tag_104\n      swap2\n      swap1\n      tag_105\n      jump\t// in\n    tag_104:\n      pop\n      swap1\n      jump\t// out\n    tag_105:\n    tag_106:\n      dup1\n      dup3\n      gt\n      iszero\n      tag_107\n      jumpi\n      0x00\n      dup2\n      0x00\n      swap1\n      sstore\n      pop\n      0x01\n      add\n      jump(tag_106)\n    tag_107:\n      pop\n      swap1\n      jump\t// out\n        /* \"#utility.yul\":7:351   */\n    tag_109:\n      0x00\n        /* \"#utility.yul\":110:175   */\n      tag_111\n        /* \"#utility.yul\":125:174   */\n      tag_112\n        /* \"#utility.yul\":167:173   */\n      dup5\n        /* \"#utility.yul\":125:174   */\n      tag_113\n      jump\t// in\n    tag_112:\n        /* \"#utility.yul\":110:175   */\n      tag_114\n      jump\t// in\n    tag_111:\n        /* \"#utility.yul\":101:175   */\n      swap1\n      pop\n        /* \"#utility.yul\":198:204   */\n      dup3\n        /* \"#utility.yul\":191:196   */\n      dup2\n        /* \"#utility.yul\":184:205   */\n      mstore\n        /* \"#utility.yul\":236:240   */\n      0x20\n        /* \"#utility.yul\":229:234   */\n      dup2\n        /* \"#utility.yul\":225:241   */\n      add\n        /* \"#utility.yul\":274:277   */\n      dup5\n        /* \"#utility.yul\":265:271   */\n      dup5\n        /* \"#utility.yul\":260:263   */\n      dup5\n        /* \"#utility.yul\":256:272   */\n      add\n        /* \"#utility.yul\":253:278   */\n      gt\n        /* \"#utility.yul\":250:252   */\n      iszero\n      tag_115\n      jumpi\n        /* \"#utility.yul\":291:292   */\n      0x00\n        /* \"#utility.yul\":288:289   */\n      dup1\n        /* \"#utility.yul\":281:293   */\n      revert\n        /* \"#utility.yul\":250:252   */\n    tag_115:\n        /* \"#utility.yul\":304:345   */\n      tag_116\n        /* \"#utility.yul\":338:344   */\n      dup5\n        /* \"#utility.yul\":333:336   */\n      dup3\n        /* \"#utility.yul\":328:331   */\n      dup6\n        /* \"#utility.yul\":304:345   */\n      tag_117\n      jump\t// in\n    tag_116:\n        /* \"#utility.yul\":91:351   */\n      pop\n      swap4\n      swap3\n      pop\n      pop\n      pop\n      jump\t// out\n        /* \"#utility.yul\":357:496   */\n    tag_118:\n      0x00\n        /* \"#utility.yul\":441:447   */\n      dup2\n        /* \"#utility.yul\":428:448   */\n      calldataload\n        /* \"#utility.yul\":419:448   */\n      swap1\n      pop\n        /* \"#utility.yul\":457:490   */\n      tag_120\n        /* \"#utility.yul\":484:489   */\n      dup2\n        /* \"#utility.yul\":457:490   */\n      tag_121\n      jump\t// in\n    tag_120:\n        /* \"#utility.yul\":409:496   */\n      swap3\n      swap2\n      pop\n      pop\n      jump\t// out\n        /* \"#utility.yul\":516:789   */\n    tag_122:\n      0x00\n        /* \"#utility.yul\":621:624   */\n      dup3\n        /* \"#utility.yul\":614:618   */\n      0x1f\n        /* \"#utility.yul\":606:612   */\n      dup4\n        /* \"#utility.yul\":602:619   */\n      add\n        /* \"#utility.yul\":598:625   */\n      slt\n        /* \"#utility.yul\":588:590   */\n      tag_124\n      jumpi\n        /* \"#utility.yul\":639:640   */\n      0x00\n        /* \"#utility.yul\":636:637   */\n      dup1\n        /* \"#utility.yul\":629:641   */\n      revert\n        /* \"#utility.yul\":588:590   */\n    tag_124:\n        /* \"#utility.yul\":679:685   */\n      dup2\n        /* \"#utility.yul\":666:686   */\n      calldataload\n        /* \"#utility.yul\":704:783   */\n      tag_125\n        /* \"#utility.yul\":779:782   */\n      dup5\n        /* \"#utility.yul\":771:777   */\n      dup3\n        /* \"#utility.yul\":764:768   */\n      0x20\n        /* \"#utility.yul\":756:762   */\n      dup7\n        /* \"#utility.yul\":752:769   */\n      add\n        /* \"#utility.yul\":704:783   */\n      tag_109\n      jump\t// in\n    tag_125:\n        /* \"#utility.yul\":695:783   */\n      swap2\n      pop\n        /* \"#utility.yul\":578:789   */\n      pop\n      swap3\n      swap2\n      pop\n      pop\n      jump\t// out\n        /* \"#utility.yul\":795:934   */\n    tag_126:\n      0x00\n        /* \"#utility.yul\":879:885   */\n      dup2\n        /* \"#utility.yul\":866:886   */\n      calldataload\n        /* \"#utility.yul\":857:886   */\n      swap1\n      pop\n        /* \"#utility.yul\":895:928   */\n      tag_128\n        /* \"#utility.yul\":922:927   */\n      dup2\n        /* \"#utility.yul\":895:928   */\n      tag_129\n      jump\t// in\n    tag_128:\n        /* \"#utility.yul\":847:934   */\n      swap3\n      swap2\n      pop\n      pop\n      jump\t// out\n        /* \"#utility.yul\":940:1202   */\n    tag_20:\n      0x00\n        /* \"#utility.yul\":1048:1050   */\n      0x20\n        /* \"#utility.yul\":1036:1045   */\n      dup3\n        /* \"#utility.yul\":1027:1034   */\n      dup5\n        /* \"#utility.yul\":1023:1046   */\n      sub\n        /* \"#utility.yul\":1019:1051   */\n      slt\n        /* \"#utility.yul\":1016:1018   */\n      iszero\n      tag_131\n      jumpi\n        /* \"#utility.yul\":1064:1065   */\n      0x00\n        /* \"#utility.yul\":1061:1062   */\n      dup1\n        /* \"#utility.yul\":1054:1066   */\n      revert\n        /* \"#utility.yul\":1016:1018   */\n    tag_131:\n        /* \"#utility.yul\":1107:1108   */\n      0x00\n        /* \"#utility.yul\":1132:1185   */\n      tag_132\n        /* \"#utility.yul\":1177:1184   */\n      dup5\n        /* \"#utility.yul\":1168:1174   */\n      dup3\n        /* \"#utility.yul\":1157:1166   */\n      dup6\n        /* \"#utility.yul\":1153:1175   */\n      add\n        /* \"#utility.yul\":1132:1185   */\n      tag_118\n      jump\t// in\n    tag_132:\n        /* \"#utility.yul\":1122:1185   */\n      swap2\n      pop\n        /* \"#utility.yul\":1078:1195   */\n      pop\n        /* \"#utility.yul\":1006:1202   */\n      swap3\n      swap2\n      pop\n      pop\n      jump\t// out\n        /* \"#utility.yul\":1208:1873   */\n    tag_43:\n      0x00\n      dup1\n      0x00\n        /* \"#utility.yul\":1360:1362   */\n      0x60\n        /* \"#utility.yul\":1348:1357   */\n      dup5\n        /* \"#utility.yul\":1339:1346   */\n      dup7\n        /* \"#utility.yul\":1335:1358   */\n      sub\n        /* \"#utility.yul\":1331:1363   */\n      slt\n        /* \"#utility.yul\":1328:1330   */\n      iszero\n      tag_134\n      jumpi\n        /* \"#utility.yul\":1376:1377   */\n      0x00\n        /* \"#utility.yul\":1373:1374   */\n      dup1\n        /* \"#utility.yul\":1366:1378   */\n      revert\n        /* \"#utility.yul\":1328:1330   */\n    tag_134:\n        /* \"#utility.yul\":1447:1448   */\n      0x00\n        /* \"#utility.yul\":1436:1445   */\n      dup5\n        /* \"#utility.yul\":1432:1449   */\n      add\n        /* \"#utility.yul\":1419:1450   */\n      calldataload\n        /* \"#utility.yul\":1477:1495   */\n      0xffffffffffffffff\n        /* \"#utility.yul\":1469:1475   */\n      dup2\n        /* \"#utility.yul\":1466:1496   */\n      gt\n        /* \"#utility.yul\":1463:1465   */\n      iszero\n      tag_135\n      jumpi\n        /* \"#utility.yul\":1509:1510   */\n      0x00\n        /* \"#utility.yul\":1506:1507   */\n      dup1\n        /* \"#utility.yul\":1499:1511   */\n      revert\n        /* \"#utility.yul\":1463:1465   */\n    tag_135:\n        /* \"#utility.yul\":1537:1600   */\n      tag_136\n        /* \"#utility.yul\":1592:1599   */\n      dup7\n        /* \"#utility.yul\":1583:1589   */\n      dup3\n        /* \"#utility.yul\":1572:1581   */\n      dup8\n        /* \"#utility.yul\":1568:1590   */\n      add\n        /* \"#utility.yul\":1537:1600   */\n      tag_122\n      jump\t// in\n    tag_136:\n        /* \"#utility.yul\":1527:1600   */\n      swap4\n      pop\n        /* \"#utility.yul\":1390:1610   */\n      pop\n        /* \"#utility.yul\":1649:1651   */\n      0x20\n        /* \"#utility.yul\":1675:1728   */\n      tag_137\n        /* \"#utility.yul\":1720:1727   */\n      dup7\n        /* \"#utility.yul\":1711:1717   */\n      dup3\n        /* \"#utility.yul\":1700:1709   */\n      dup8\n        /* \"#utility.yul\":1696:1718   */\n      add\n        /* \"#utility.yul\":1675:1728   */\n      tag_126\n      jump\t// in\n    tag_137:\n        /* \"#utility.yul\":1665:1728   */\n      swap3\n      pop\n        /* \"#utility.yul\":1620:1738   */\n      pop\n        /* \"#utility.yul\":1777:1779   */\n      0x40\n        /* \"#utility.yul\":1803:1856   */\n      tag_138\n        /* \"#utility.yul\":1848:1855   */\n      dup7\n        /* \"#utility.yul\":1839:1845   */\n      dup3\n        /* \"#utility.yul\":1828:1837   */\n      dup8\n        /* \"#utility.yul\":1824:1846   */\n      add\n        /* \"#utility.yul\":1803:1856   */\n      tag_118\n      jump\t// in\n    tag_138:\n        /* \"#utility.yul\":1793:1856   */\n      swap2\n      pop\n        /* \"#utility.yul\":1748:1866   */\n      pop\n        /* \"#utility.yul\":1318:1873   */\n      swap3\n      pop\n      swap3\n      pop\n      swap3\n      jump\t// out\n        /* \"#utility.yul\":1879:2141   */\n    tag_15:\n      0x00\n        /* \"#utility.yul\":1987:1989   */\n      0x20\n        /* \"#utility.yul\":1975:1984   */\n      dup3\n        /* \"#utility.yul\":1966:1973   */\n      dup5\n        /* \"#utility.yul\":1962:1985   */\n      sub\n        /* \"#utility.yul\":1958:1990   */\n      slt\n        /* \"#utility.yul\":1955:1957   */\n      iszero\n      tag_140\n      jumpi\n        /* \"#utility.yul\":2003:2004   */\n      0x00\n        /* \"#utility.yul\":2000:2001   */\n      dup1\n        /* \"#utility.yul\":1993:2005   */\n      revert\n        /* \"#utility.yul\":1955:1957   */\n    tag_140:\n        /* \"#utility.yul\":2046:2047   */\n      0x00\n        /* \"#utility.yul\":2071:2124   */\n      tag_141\n        /* \"#utility.yul\":2116:2123   */\n      dup5\n        /* \"#utility.yul\":2107:2113   */\n      dup3\n        /* \"#utility.yul\":2096:2105   */\n      dup6\n        /* \"#utility.yul\":2092:2114   */\n      add\n        /* \"#utility.yul\":2071:2124   */\n      tag_126\n      jump\t// in\n    tag_141:\n        /* \"#utility.yul\":2061:2124   */\n      swap2\n      pop\n        /* \"#utility.yul\":2017:2134   */\n      pop\n        /* \"#utility.yul\":1945:2141   */\n      swap3\n      swap2\n      pop\n      pop\n      jump\t// out\n        /* \"#utility.yul\":2147:2265   */\n    tag_142:\n        /* \"#utility.yul\":2234:2258   */\n      tag_144\n        /* \"#utility.yul\":2252:2257   */\n      dup2\n        /* \"#utility.yul\":2234:2258   */\n      tag_145\n      jump\t// in\n    tag_144:\n        /* \"#utility.yul\":2229:2232   */\n      dup3\n        /* \"#utility.yul\":2222:2259   */\n      mstore\n        /* \"#utility.yul\":2212:2265   */\n      pop\n      pop\n      jump\t// out\n        /* \"#utility.yul\":2271:2380   */\n    tag_146:\n        /* \"#utility.yul\":2352:2373   */\n      tag_148\n        /* \"#utility.yul\":2367:2372   */\n      dup2\n        /* \"#utility.yul\":2352:2373   */\n      tag_149\n      jump\t// in\n    tag_148:\n        /* \"#utility.yul\":2347:2350   */\n      dup3\n        /* \"#utility.yul\":2340:2374   */\n      mstore\n        /* \"#utility.yul\":2330:2380   */\n      pop\n      pop\n      jump\t// out\n        /* \"#utility.yul\":2386:2750   */\n    tag_150:\n      0x00\n        /* \"#utility.yul\":2502:2541   */\n      tag_152\n        /* \"#utility.yul\":2535:2540   */\n      dup3\n        /* \"#utility.yul\":2502:2541   */\n      tag_153\n      jump\t// in\n    tag_152:\n        /* \"#utility.yul\":2557:2628   */\n      tag_154\n        /* \"#utility.yul\":2621:2627   */\n      dup2\n        /* \"#utility.yul\":2616:2619   */\n      dup6\n        /* \"#utility.yul\":2557:2628   */\n      tag_155\n      jump\t// in\n    tag_154:\n        /* \"#utility.yul\":2550:2628   */\n      swap4\n      pop\n        /* \"#utility.yul\":2637:2689   */\n      tag_156\n        /* \"#utility.yul\":2682:2688   */\n      dup2\n        /* \"#utility.yul\":2677:2680   */\n      dup6\n        /* \"#utility.yul\":2670:2674   */\n      0x20\n        /* \"#utility.yul\":2663:2668   */\n      dup7\n        /* \"#utility.yul\":2659:2675   */\n      add\n        /* \"#utility.yul\":2637:2689   */\n      tag_157\n      jump\t// in\n    tag_156:\n        /* \"#utility.yul\":2714:2743   */\n      tag_158\n        /* \"#utility.yul\":2736:2742   */\n      dup2\n        /* \"#utility.yul\":2714:2743   */\n      tag_159\n      jump\t// in\n    tag_158:\n        /* \"#utility.yul\":2709:2712   */\n      dup5\n        /* \"#utility.yul\":2705:2744   */\n      add\n        /* \"#utility.yul\":2698:2744   */\n      swap2\n      pop\n        /* \"#utility.yul\":2478:2750   */\n      pop\n      swap3\n      swap2\n      pop\n      pop\n      jump\t// out\n        /* \"#utility.yul\":2756:3127   */\n    tag_160:\n      0x00\n        /* \"#utility.yul\":2919:2986   */\n      tag_162\n        /* \"#utility.yul\":2983:2985   */\n      0x27\n        /* \"#utility.yul\":2978:2981   */\n      dup4\n        /* \"#utility.yul\":2919:2986   */\n      tag_155\n      jump\t// in\n    tag_162:\n        /* \"#utility.yul\":2912:2986   */\n      swap2\n      pop\n        /* \"#utility.yul\":3016:3050   */\n      0x4f6e6c7920746865206d616e616765722063616e2063616c6c20746869732066\n        /* \"#utility.yul\":3012:3013   */\n      0x00\n        /* \"#utility.yul\":3007:3010   */\n      dup4\n        /* \"#utility.yul\":3003:3014   */\n      add\n        /* \"#utility.yul\":2996:3051   */\n      mstore\n        /* \"#utility.yul\":3082:3091   */\n      0x756e6374696f6e00000000000000000000000000000000000000000000000000\n        /* \"#utility.yul\":3077:3079   */\n      0x20\n        /* \"#utility.yul\":3072:3075   */\n      dup4\n        /* \"#utility.yul\":3068:3080   */\n      add\n        /* \"#utility.yul\":3061:3092   */\n      mstore\n        /* \"#utility.yul\":3118:3120   */\n      0x40\n        /* \"#utility.yul\":3113:3116   */\n      dup3\n        /* \"#utility.yul\":3109:3121   */\n      add\n        /* \"#utility.yul\":3102:3121   */\n      swap1\n      pop\n        /* \"#utility.yul\":2902:3127   */\n      swap2\n      swap1\n      pop\n      jump\t// out\n        /* \"#utility.yul\":3133:3529   */\n    tag_163:\n      0x00\n        /* \"#utility.yul\":3296:3363   */\n      tag_165\n        /* \"#utility.yul\":3360:3362   */\n      0x40\n        /* \"#utility.yul\":3355:3358   */\n      dup4\n        /* \"#utility.yul\":3296:3363   */\n      tag_155\n      jump\t// in\n    tag_165:\n        /* \"#utility.yul\":3289:3363   */\n      swap2\n      pop\n        /* \"#utility.yul\":3393:3427   */\n      0x54686520726571756573742068617320746f20626520617070726f7665642062\n        /* \"#utility.yul\":3389:3390   */\n      0x00\n        /* \"#utility.yul\":3384:3387   */\n      dup4\n        /* \"#utility.yul\":3380:3391   */\n      add\n        /* \"#utility.yul\":3373:3428   */\n      mstore\n        /* \"#utility.yul\":3459:3493   */\n      0x79206174206c656173742068616c662074686520636f6e7472696275746f7273\n        /* \"#utility.yul\":3454:3456   */\n      0x20\n        /* \"#utility.yul\":3449:3452   */\n      dup4\n        /* \"#utility.yul\":3445:3457   */\n      add\n        /* \"#utility.yul\":3438:3494   */\n      mstore\n        /* \"#utility.yul\":3520:3522   */\n      0x40\n        /* \"#utility.yul\":3515:3518   */\n      dup3\n        /* \"#utility.yul\":3511:3523   */\n      add\n        /* \"#utility.yul\":3504:3523   */\n      swap1\n      pop\n        /* \"#utility.yul\":3279:3529   */\n      swap2\n      swap1\n      pop\n      jump\t// out\n        /* \"#utility.yul\":3535:3863   */\n    tag_166:\n      0x00\n        /* \"#utility.yul\":3698:3765   */\n      tag_168\n        /* \"#utility.yul\":3762:3764   */\n      0x1e\n        /* \"#utility.yul\":3757:3760   */\n      dup4\n        /* \"#utility.yul\":3698:3765   */\n      tag_155\n      jump\t// in\n    tag_168:\n        /* \"#utility.yul\":3691:3765   */\n      swap2\n      pop\n        /* \"#utility.yul\":3795:3827   */\n      0x596f752063616e277420617070726f7665207468697320726571756573740000\n        /* \"#utility.yul\":3791:3792   */\n      0x00\n        /* \"#utility.yul\":3786:3789   */\n      dup4\n        /* \"#utility.yul\":3782:3793   */\n      add\n        /* \"#utility.yul\":3775:3828   */\n      mstore\n        /* \"#utility.yul\":3854:3856   */\n      0x20\n        /* \"#utility.yul\":3849:3852   */\n      dup3\n        /* \"#utility.yul\":3845:3857   */\n      add\n        /* \"#utility.yul\":3838:3857   */\n      swap1\n      pop\n        /* \"#utility.yul\":3681:3863   */\n      swap2\n      swap1\n      pop\n      jump\t// out\n        /* \"#utility.yul\":3869:4197   */\n    tag_169:\n      0x00\n        /* \"#utility.yul\":4032:4099   */\n      tag_171\n        /* \"#utility.yul\":4096:4098   */\n      0x1e\n        /* \"#utility.yul\":4091:4094   */\n      dup4\n        /* \"#utility.yul\":4032:4099   */\n      tag_155\n      jump\t// in\n    tag_171:\n        /* \"#utility.yul\":4025:4099   */\n      swap2\n      pop\n        /* \"#utility.yul\":4129:4161   */\n      0x596f7520616c726561647920766f746564207468697320726571756573740000\n        /* \"#utility.yul\":4125:4126   */\n      0x00\n        /* \"#utility.yul\":4120:4123   */\n      dup4\n        /* \"#utility.yul\":4116:4127   */\n      add\n        /* \"#utility.yul\":4109:4162   */\n      mstore\n        /* \"#utility.yul\":4188:4190   */\n      0x20\n        /* \"#utility.yul\":4183:4186   */\n      dup3\n        /* \"#utility.yul\":4179:4191   */\n      add\n        /* \"#utility.yul\":4172:4191   */\n      swap1\n      pop\n        /* \"#utility.yul\":4015:4197   */\n      swap2\n      swap1\n      pop\n      jump\t// out\n        /* \"#utility.yul\":4203:4568   */\n    tag_172:\n      0x00\n        /* \"#utility.yul\":4366:4433   */\n      tag_174\n        /* \"#utility.yul\":4430:4432   */\n      0x21\n        /* \"#utility.yul\":4425:4428   */\n      dup4\n        /* \"#utility.yul\":4366:4433   */\n      tag_155\n      jump\t// in\n    tag_174:\n        /* \"#utility.yul\":4359:4433   */\n      swap2\n      pop\n        /* \"#utility.yul\":4463:4497   */\n      0x54686520726571756573742077617320616c72656164792066696e616c697a65\n        /* \"#utility.yul\":4459:4460   */\n      0x00\n        /* \"#utility.yul\":4454:4457   */\n      dup4\n        /* \"#utility.yul\":4450:4461   */\n      add\n        /* \"#utility.yul\":4443:4498   */\n      mstore\n        /* \"#utility.yul\":4529:4532   */\n      0x6400000000000000000000000000000000000000000000000000000000000000\n        /* \"#utility.yul\":4524:4526   */\n      0x20\n        /* \"#utility.yul\":4519:4522   */\n      dup4\n        /* \"#utility.yul\":4515:4527   */\n      add\n        /* \"#utility.yul\":4508:4533   */\n      mstore\n        /* \"#utility.yul\":4559:4561   */\n      0x40\n        /* \"#utility.yul\":4554:4557   */\n      dup3\n        /* \"#utility.yul\":4550:4562   */\n      add\n        /* \"#utility.yul\":4543:4562   */\n      swap1\n      pop\n        /* \"#utility.yul\":4349:4568   */\n      swap2\n      swap1\n      pop\n      jump\t// out\n        /* \"#utility.yul\":4574:4957   */\n    tag_175:\n      0x00\n        /* \"#utility.yul\":4737:4804   */\n      tag_177\n        /* \"#utility.yul\":4801:4803   */\n      0x33\n        /* \"#utility.yul\":4796:4799   */\n      dup4\n        /* \"#utility.yul\":4737:4804   */\n      tag_155\n      jump\t// in\n    tag_177:\n        /* \"#utility.yul\":4730:4804   */\n      swap2\n      pop\n        /* \"#utility.yul\":4834:4868   */\n      0x596f752061726520747279696e6720746f20636f6e74726962757465206c6573\n        /* \"#utility.yul\":4830:4831   */\n      0x00\n        /* \"#utility.yul\":4825:4828   */\n      dup4\n        /* \"#utility.yul\":4821:4832   */\n      add\n        /* \"#utility.yul\":4814:4869   */\n      mstore\n        /* \"#utility.yul\":4900:4921   */\n      0x73207468616e20746865206d696e696d756d2e00000000000000000000000000\n        /* \"#utility.yul\":4895:4897   */\n      0x20\n        /* \"#utility.yul\":4890:4893   */\n      dup4\n        /* \"#utility.yul\":4886:4898   */\n      add\n        /* \"#utility.yul\":4879:4922   */\n      mstore\n        /* \"#utility.yul\":4948:4950   */\n      0x40\n        /* \"#utility.yul\":4943:4946   */\n      dup3\n        /* \"#utility.yul\":4939:4951   */\n      add\n        /* \"#utility.yul\":4932:4951   */\n      swap1\n      pop\n        /* \"#utility.yul\":4720:4957   */\n      swap2\n      swap1\n      pop\n      jump\t// out\n        /* \"#utility.yul\":4963:5081   */\n    tag_178:\n        /* \"#utility.yul\":5050:5074   */\n      tag_180\n        /* \"#utility.yul\":5068:5073   */\n      dup2\n        /* \"#utility.yul\":5050:5074   */\n      tag_181\n      jump\t// in\n    tag_180:\n        /* \"#utility.yul\":5045:5048   */\n      dup3\n        /* \"#utility.yul\":5038:5075   */\n      mstore\n        /* \"#utility.yul\":5028:5081   */\n      pop\n      pop\n      jump\t// out\n        /* \"#utility.yul\":5087:5309   */\n    tag_28:\n      0x00\n        /* \"#utility.yul\":5218:5220   */\n      0x20\n        /* \"#utility.yul\":5207:5216   */\n      dup3\n        /* \"#utility.yul\":5203:5221   */\n      add\n        /* \"#utility.yul\":5195:5221   */\n      swap1\n      pop\n        /* \"#utility.yul\":5231:5302   */\n      tag_183\n        /* \"#utility.yul\":5299:5300   */\n      0x00\n        /* \"#utility.yul\":5288:5297   */\n      dup4\n        /* \"#utility.yul\":5284:5301   */\n      add\n        /* \"#utility.yul\":5275:5281   */\n      dup5\n        /* \"#utility.yul\":5231:5302   */\n      tag_142\n      jump\t// in\n    tag_183:\n        /* \"#utility.yul\":5185:5309   */\n      swap3\n      swap2\n      pop\n      pop\n      jump\t// out\n        /* \"#utility.yul\":5315:5525   */\n    tag_23:\n      0x00\n        /* \"#utility.yul\":5440:5442   */\n      0x20\n        /* \"#utility.yul\":5429:5438   */\n      dup3\n        /* \"#utility.yul\":5425:5443   */\n      add\n        /* \"#utility.yul\":5417:5443   */\n      swap1\n      pop\n        /* \"#utility.yul\":5453:5518   */\n      tag_185\n        /* \"#utility.yul\":5515:5516   */\n      0x00\n        /* \"#utility.yul\":5504:5513   */\n      dup4\n        /* \"#utility.yul\":5500:5517   */\n      add\n        /* \"#utility.yul\":5491:5497   */\n      dup5\n        /* \"#utility.yul\":5453:5518   */\n      tag_146\n      jump\t// in\n    tag_185:\n        /* \"#utility.yul\":5407:5525   */\n      swap3\n      swap2\n      pop\n      pop\n      jump\t// out\n        /* \"#utility.yul\":5531:6274   */\n    tag_34:\n      0x00\n        /* \"#utility.yul\":5788:5791   */\n      0xa0\n        /* \"#utility.yul\":5777:5786   */\n      dup3\n        /* \"#utility.yul\":5773:5792   */\n      add\n        /* \"#utility.yul\":5765:5792   */\n      swap1\n      pop\n        /* \"#utility.yul\":5838:5847   */\n      dup2\n        /* \"#utility.yul\":5832:5836   */\n      dup2\n        /* \"#utility.yul\":5828:5848   */\n      sub\n        /* \"#utility.yul\":5824:5825   */\n      0x00\n        /* \"#utility.yul\":5813:5822   */\n      dup4\n        /* \"#utility.yul\":5809:5826   */\n      add\n        /* \"#utility.yul\":5802:5849   */\n      mstore\n        /* \"#utility.yul\":5866:5944   */\n      tag_187\n        /* \"#utility.yul\":5939:5943   */\n      dup2\n        /* \"#utility.yul\":5930:5936   */\n      dup9\n        /* \"#utility.yul\":5866:5944   */\n      tag_150\n      jump\t// in\n    tag_187:\n        /* \"#utility.yul\":5858:5944   */\n      swap1\n      pop\n        /* \"#utility.yul\":5954:6026   */\n      tag_188\n        /* \"#utility.yul\":6022:6024   */\n      0x20\n        /* \"#utility.yul\":6011:6020   */\n      dup4\n        /* \"#utility.yul\":6007:6025   */\n      add\n        /* \"#utility.yul\":5998:6004   */\n      dup8\n        /* \"#utility.yul\":5954:6026   */\n      tag_178\n      jump\t// in\n    tag_188:\n        /* \"#utility.yul\":6036:6108   */\n      tag_189\n        /* \"#utility.yul\":6104:6106   */\n      0x40\n        /* \"#utility.yul\":6093:6102   */\n      dup4\n        /* \"#utility.yul\":6089:6107   */\n      add\n        /* \"#utility.yul\":6080:6086   */\n      dup7\n        /* \"#utility.yul\":6036:6108   */\n      tag_142\n      jump\t// in\n    tag_189:\n        /* \"#utility.yul\":6118:6184   */\n      tag_190\n        /* \"#utility.yul\":6180:6182   */\n      0x60\n        /* \"#utility.yul\":6169:6178   */\n      dup4\n        /* \"#utility.yul\":6165:6183   */\n      add\n        /* \"#utility.yul\":6156:6162   */\n      dup6\n        /* \"#utility.yul\":6118:6184   */\n      tag_146\n      jump\t// in\n    tag_190:\n        /* \"#utility.yul\":6194:6267   */\n      tag_191\n        /* \"#utility.yul\":6262:6265   */\n      0x80\n        /* \"#utility.yul\":6251:6260   */\n      dup4\n        /* \"#utility.yul\":6247:6266   */\n      add\n        /* \"#utility.yul\":6238:6244   */\n      dup5\n        /* \"#utility.yul\":6194:6267   */\n      tag_178\n      jump\t// in\n    tag_191:\n        /* \"#utility.yul\":5755:6274   */\n      swap7\n      swap6\n      pop\n      pop\n      pop\n      pop\n      pop\n      pop\n      jump\t// out\n        /* \"#utility.yul\":6280:6699   */\n    tag_58:\n      0x00\n        /* \"#utility.yul\":6484:6486   */\n      0x20\n        /* \"#utility.yul\":6473:6482   */\n      dup3\n        /* \"#utility.yul\":6469:6487   */\n      add\n        /* \"#utility.yul\":6461:6487   */\n      swap1\n      pop\n        /* \"#utility.yul\":6533:6542   */\n      dup2\n        /* \"#utility.yul\":6527:6531   */\n      dup2\n        /* \"#utility.yul\":6523:6543   */\n      sub\n        /* \"#utility.yul\":6519:6520   */\n      0x00\n        /* \"#utility.yul\":6508:6517   */\n      dup4\n        /* \"#utility.yul\":6504:6521   */\n      add\n        /* \"#utility.yul\":6497:6544   */\n      mstore\n        /* \"#utility.yul\":6561:6692   */\n      tag_193\n        /* \"#utility.yul\":6687:6691   */\n      dup2\n        /* \"#utility.yul\":6561:6692   */\n      tag_160\n      jump\t// in\n    tag_193:\n        /* \"#utility.yul\":6553:6692   */\n      swap1\n      pop\n        /* \"#utility.yul\":6451:6699   */\n      swap2\n      swap1\n      pop\n      jump\t// out\n        /* \"#utility.yul\":6705:7124   */\n    tag_67:\n      0x00\n        /* \"#utility.yul\":6909:6911   */\n      0x20\n        /* \"#utility.yul\":6898:6907   */\n      dup3\n        /* \"#utility.yul\":6894:6912   */\n      add\n        /* \"#utility.yul\":6886:6912   */\n      swap1\n      pop\n        /* \"#utility.yul\":6958:6967   */\n      dup2\n        /* \"#utility.yul\":6952:6956   */\n      dup2\n        /* \"#utility.yul\":6948:6968   */\n      sub\n        /* \"#utility.yul\":6944:6945   */\n      0x00\n        /* \"#utility.yul\":6933:6942   */\n      dup4\n        /* \"#utility.yul\":6929:6946   */\n      add\n        /* \"#utility.yul\":6922:6969   */\n      mstore\n        /* \"#utility.yul\":6986:7117   */\n      tag_195\n        /* \"#utility.yul\":7112:7116   */\n      dup2\n        /* \"#utility.yul\":6986:7117   */\n      tag_163\n      jump\t// in\n    tag_195:\n        /* \"#utility.yul\":6978:7117   */\n      swap1\n      pop\n        /* \"#utility.yul\":6876:7124   */\n      swap2\n      swap1\n      pop\n      jump\t// out\n        /* \"#utility.yul\":7130:7549   */\n    tag_93:\n      0x00\n        /* \"#utility.yul\":7334:7336   */\n      0x20\n        /* \"#utility.yul\":7323:7332   */\n      dup3\n        /* \"#utility.yul\":7319:7337   */\n      add\n        /* \"#utility.yul\":7311:7337   */\n      swap1\n      pop\n        /* \"#utility.yul\":7383:7392   */\n      dup2\n        /* \"#utility.yul\":7377:7381   */\n      dup2\n        /* \"#utility.yul\":7373:7393   */\n      sub\n        /* \"#utility.yul\":7369:7370   */\n      0x00\n        /* \"#utility.yul\":7358:7367   */\n      dup4\n        /* \"#utility.yul\":7354:7371   */\n      add\n        /* \"#utility.yul\":7347:7394   */\n      mstore\n        /* \"#utility.yul\":7411:7542   */\n      tag_197\n        /* \"#utility.yul\":7537:7541   */\n      dup2\n        /* \"#utility.yul\":7411:7542   */\n      tag_166\n      jump\t// in\n    tag_197:\n        /* \"#utility.yul\":7403:7542   */\n      swap1\n      pop\n        /* \"#utility.yul\":7301:7549   */\n      swap2\n      swap1\n      pop\n      jump\t// out\n        /* \"#utility.yul\":7555:7974   */\n    tag_96:\n      0x00\n        /* \"#utility.yul\":7759:7761   */\n      0x20\n        /* \"#utility.yul\":7748:7757   */\n      dup3\n        /* \"#utility.yul\":7744:7762   */\n      add\n        /* \"#utility.yul\":7736:7762   */\n      swap1\n      pop\n        /* \"#utility.yul\":7808:7817   */\n      dup2\n        /* \"#utility.yul\":7802:7806   */\n      dup2\n        /* \"#utility.yul\":7798:7818   */\n      sub\n        /* \"#utility.yul\":7794:7795   */\n      0x00\n        /* \"#utility.yul\":7783:7792   */\n      dup4\n        /* \"#utility.yul\":7779:7796   */\n      add\n        /* \"#utility.yul\":7772:7819   */\n      mstore\n        /* \"#utility.yul\":7836:7967   */\n      tag_199\n        /* \"#utility.yul\":7962:7966   */\n      dup2\n        /* \"#utility.yul\":7836:7967   */\n      tag_169\n      jump\t// in\n    tag_199:\n        /* \"#utility.yul\":7828:7967   */\n      swap1\n      pop\n        /* \"#utility.yul\":7726:7974   */\n      swap2\n      swap1\n      pop\n      jump\t// out\n        /* \"#utility.yul\":7980:8399   */\n    tag_62:\n      0x00\n        /* \"#utility.yul\":8184:8186   */\n      0x20\n        /* \"#utility.yul\":8173:8182   */\n      dup3\n        /* \"#utility.yul\":8169:8187   */\n      add\n        /* \"#utility.yul\":8161:8187   */\n      swap1\n      pop\n        /* \"#utility.yul\":8233:8242   */\n      dup2\n        /* \"#utility.yul\":8227:8231   */\n      dup2\n        /* \"#utility.yul\":8223:8243   */\n      sub\n        /* \"#utility.yul\":8219:8220   */\n      0x00\n        /* \"#utility.yul\":8208:8217   */\n      dup4\n        /* \"#utility.yul\":8204:8221   */\n      add\n        /* \"#utility.yul\":8197:8244   */\n      mstore\n        /* \"#utility.yul\":8261:8392   */\n      tag_201\n        /* \"#utility.yul\":8387:8391   */\n      dup2\n        /* \"#utility.yul\":8261:8392   */\n      tag_172\n      jump\t// in\n    tag_201:\n        /* \"#utility.yul\":8253:8392   */\n      swap1\n      pop\n        /* \"#utility.yul\":8151:8399   */\n      swap2\n      swap1\n      pop\n      jump\t// out\n        /* \"#utility.yul\":8405:8824   */\n    tag_87:\n      0x00\n        /* \"#utility.yul\":8609:8611   */\n      0x20\n        /* \"#utility.yul\":8598:8607   */\n      dup3\n        /* \"#utility.yul\":8594:8612   */\n      add\n        /* \"#utility.yul\":8586:8612   */\n      swap1\n      pop\n        /* \"#utility.yul\":8658:8667   */\n      dup2\n        /* \"#utility.yul\":8652:8656   */\n      dup2\n        /* \"#utility.yul\":8648:8668   */\n      sub\n        /* \"#utility.yul\":8644:8645   */\n      0x00\n        /* \"#utility.yul\":8633:8642   */\n      dup4\n        /* \"#utility.yul\":8629:8646   */\n      add\n        /* \"#utility.yul\":8622:8669   */\n      mstore\n        /* \"#utility.yul\":8686:8817   */\n      tag_203\n        /* \"#utility.yul\":8812:8816   */\n      dup2\n        /* \"#utility.yul\":8686:8817   */\n      tag_175\n      jump\t// in\n    tag_203:\n        /* \"#utility.yul\":8678:8817   */\n      swap1\n      pop\n        /* \"#utility.yul\":8576:8824   */\n      swap2\n      swap1\n      pop\n      jump\t// out\n        /* \"#utility.yul\":8830:9052   */\n    tag_39:\n      0x00\n        /* \"#utility.yul\":8961:8963   */\n      0x20\n        /* \"#utility.yul\":8950:8959   */\n      dup3\n        /* \"#utility.yul\":8946:8964   */\n      add\n        /* \"#utility.yul\":8938:8964   */\n      swap1\n      pop\n        /* \"#utility.yul\":8974:9045   */\n      tag_205\n        /* \"#utility.yul\":9042:9043   */\n      0x00\n        /* \"#utility.yul\":9031:9040   */\n      dup4\n        /* \"#utility.yul\":9027:9044   */\n      add\n        /* \"#utility.yul\":9018:9024   */\n      dup5\n        /* \"#utility.yul\":8974:9045   */\n      tag_178\n      jump\t// in\n    tag_205:\n        /* \"#utility.yul\":8928:9052   */\n      swap3\n      swap2\n      pop\n      pop\n      jump\t// out\n        /* \"#utility.yul\":9058:9341   */\n    tag_114:\n      0x00\n        /* \"#utility.yul\":9124:9126   */\n      0x40\n        /* \"#utility.yul\":9118:9127   */\n      mload\n        /* \"#utility.yul\":9108:9127   */\n      swap1\n      pop\n        /* \"#utility.yul\":9166:9170   */\n      dup2\n        /* \"#utility.yul\":9158:9164   */\n      dup2\n        /* \"#utility.yul\":9154:9171   */\n      add\n        /* \"#utility.yul\":9273:9279   */\n      dup2\n        /* \"#utility.yul\":9261:9271   */\n      dup2\n        /* \"#utility.yul\":9258:9280   */\n      lt\n        /* \"#utility.yul\":9237:9255   */\n      0xffffffffffffffff\n        /* \"#utility.yul\":9225:9235   */\n      dup3\n        /* \"#utility.yul\":9222:9256   */\n      gt\n        /* \"#utility.yul\":9219:9281   */\n      or\n        /* \"#utility.yul\":9216:9218   */\n      iszero\n      tag_207\n      jumpi\n        /* \"#utility.yul\":9284:9302   */\n      tag_208\n      tag_209\n      jump\t// in\n    tag_208:\n        /* \"#utility.yul\":9216:9218   */\n    tag_207:\n        /* \"#utility.yul\":9324:9334   */\n      dup1\n        /* \"#utility.yul\":9320:9322   */\n      0x40\n        /* \"#utility.yul\":9313:9335   */\n      mstore\n        /* \"#utility.yul\":9098:9341   */\n      pop\n      swap2\n      swap1\n      pop\n      jump\t// out\n        /* \"#utility.yul\":9347:9679   */\n    tag_113:\n      0x00\n        /* \"#utility.yul\":9499:9517   */\n      0xffffffffffffffff\n        /* \"#utility.yul\":9491:9497   */\n      dup3\n        /* \"#utility.yul\":9488:9518   */\n      gt\n        /* \"#utility.yul\":9485:9487   */\n      iszero\n      tag_211\n      jumpi\n        /* \"#utility.yul\":9521:9539   */\n      tag_212\n      tag_209\n      jump\t// in\n    tag_212:\n        /* \"#utility.yul\":9485:9487   */\n    tag_211:\n        /* \"#utility.yul\":9606:9610   */\n      0x1f\n        /* \"#utility.yul\":9602:9611   */\n      not\n        /* \"#utility.yul\":9595:9599   */\n      0x1f\n        /* \"#utility.yul\":9587:9593   */\n      dup4\n        /* \"#utility.yul\":9583:9600   */\n      add\n        /* \"#utility.yul\":9579:9612   */\n      and\n        /* \"#utility.yul\":9571:9612   */\n      swap1\n      pop\n        /* \"#utility.yul\":9667:9671   */\n      0x20\n        /* \"#utility.yul\":9661:9665   */\n      dup2\n        /* \"#utility.yul\":9657:9672   */\n      add\n        /* \"#utility.yul\":9649:9672   */\n      swap1\n      pop\n        /* \"#utility.yul\":9414:9679   */\n      swap2\n      swap1\n      pop\n      jump\t// out\n        /* \"#utility.yul\":9685:9784   */\n    tag_153:\n      0x00\n        /* \"#utility.yul\":9771:9776   */\n      dup2\n        /* \"#utility.yul\":9765:9777   */\n      mload\n        /* \"#utility.yul\":9755:9777   */\n      swap1\n      pop\n        /* \"#utility.yul\":9744:9784   */\n      swap2\n      swap1\n      pop\n      jump\t// out\n        /* \"#utility.yul\":9790:9959   */\n    tag_155:\n      0x00\n        /* \"#utility.yul\":9908:9914   */\n      dup3\n        /* \"#utility.yul\":9903:9906   */\n      dup3\n        /* \"#utility.yul\":9896:9915   */\n      mstore\n        /* \"#utility.yul\":9948:9952   */\n      0x20\n        /* \"#utility.yul\":9943:9946   */\n      dup3\n        /* \"#utility.yul\":9939:9953   */\n      add\n        /* \"#utility.yul\":9924:9953   */\n      swap1\n      pop\n        /* \"#utility.yul\":9886:9959   */\n      swap3\n      swap2\n      pop\n      pop\n      jump\t// out\n        /* \"#utility.yul\":9965:10150   */\n    tag_64:\n      0x00\n        /* \"#utility.yul\":10022:10042   */\n      tag_216\n        /* \"#utility.yul\":10040:10041   */\n      dup3\n        /* \"#utility.yul\":10022:10042   */\n      tag_181\n      jump\t// in\n    tag_216:\n        /* \"#utility.yul\":10017:10042   */\n      swap2\n      pop\n        /* \"#utility.yul\":10056:10076   */\n      tag_217\n        /* \"#utility.yul\":10074:10075   */\n      dup4\n        /* \"#utility.yul\":10056:10076   */\n      tag_181\n      jump\t// in\n    tag_217:\n        /* \"#utility.yul\":10051:10076   */\n      swap3\n      pop\n        /* \"#utility.yul\":10095:10096   */\n      dup3\n        /* \"#utility.yul\":10085:10087   */\n      tag_218\n      jumpi\n        /* \"#utility.yul\":10100:10118   */\n      tag_219\n      tag_220\n      jump\t// in\n    tag_219:\n        /* \"#utility.yul\":10085:10087   */\n    tag_218:\n        /* \"#utility.yul\":10142:10143   */\n      dup3\n        /* \"#utility.yul\":10139:10140   */\n      dup3\n        /* \"#utility.yul\":10135:10144   */\n      div\n        /* \"#utility.yul\":10130:10144   */\n      swap1\n      pop\n        /* \"#utility.yul\":10007:10150   */\n      swap3\n      swap2\n      pop\n      pop\n      jump\t// out\n        /* \"#utility.yul\":10156:10252   */\n    tag_145:\n      0x00\n        /* \"#utility.yul\":10222:10246   */\n      tag_222\n        /* \"#utility.yul\":10240:10245   */\n      dup3\n        /* \"#utility.yul\":10222:10246   */\n      tag_223\n      jump\t// in\n    tag_222:\n        /* \"#utility.yul\":10211:10246   */\n      swap1\n      pop\n        /* \"#utility.yul\":10201:10252   */\n      swap2\n      swap1\n      pop\n      jump\t// out\n        /* \"#utility.yul\":10258:10348   */\n    tag_149:\n      0x00\n        /* \"#utility.yul\":10335:10340   */\n      dup2\n        /* \"#utility.yul\":10328:10341   */\n      iszero\n        /* \"#utility.yul\":10321:10342   */\n      iszero\n        /* \"#utility.yul\":10310:10342   */\n      swap1\n      pop\n        /* \"#utility.yul\":10300:10348   */\n      swap2\n      swap1\n      pop\n      jump\t// out\n        /* \"#utility.yul\":10354:10480   */\n    tag_223:\n      0x00\n        /* \"#utility.yul\":10431:10473   */\n      0xffffffffffffffffffffffffffffffffffffffff\n        /* \"#utility.yul\":10424:10429   */\n      dup3\n        /* \"#utility.yul\":10420:10474   */\n      and\n        /* \"#utility.yul\":10409:10474   */\n      swap1\n      pop\n        /* \"#utility.yul\":10399:10480   */\n      swap2\n      swap1\n      pop\n      jump\t// out\n        /* \"#utility.yul\":10486:10563   */\n    tag_181:\n      0x00\n        /* \"#utility.yul\":10552:10557   */\n      dup2\n        /* \"#utility.yul\":10541:10557   */\n      swap1\n      pop\n        /* \"#utility.yul\":10531:10563   */\n      swap2\n      swap1\n      pop\n      jump\t// out\n        /* \"#utility.yul\":10569:10723   */\n    tag_117:\n        /* \"#utility.yul\":10653:10659   */\n      dup3\n        /* \"#utility.yul\":10648:10651   */\n      dup2\n        /* \"#utility.yul\":10643:10646   */\n      dup4\n        /* \"#utility.yul\":10630:10660   */\n      calldatacopy\n        /* \"#utility.yul\":10715:10716   */\n      0x00\n        /* \"#utility.yul\":10706:10712   */\n      dup4\n        /* \"#utility.yul\":10701:10704   */\n      dup4\n        /* \"#utility.yul\":10697:10713   */\n      add\n        /* \"#utility.yul\":10690:10717   */\n      mstore\n        /* \"#utility.yul\":10620:10723   */\n      pop\n      pop\n      pop\n      jump\t// out\n        /* \"#utility.yul\":10729:11036   */\n    tag_157:\n        /* \"#utility.yul\":10797:10798   */\n      0x00\n        /* \"#utility.yul\":10807:10920   */\n    tag_229:\n        /* \"#utility.yul\":10821:10827   */\n      dup4\n        /* \"#utility.yul\":10818:10819   */\n      dup2\n        /* \"#utility.yul\":10815:10828   */\n      lt\n        /* \"#utility.yul\":10807:10920   */\n      iszero\n      tag_231\n      jumpi\n        /* \"#utility.yul\":10906:10907   */\n      dup1\n        /* \"#utility.yul\":10901:10904   */\n      dup3\n        /* \"#utility.yul\":10897:10908   */\n      add\n        /* \"#utility.yul\":10891:10909   */\n      mload\n        /* \"#utility.yul\":10887:10888   */\n      dup2\n        /* \"#utility.yul\":10882:10885   */\n      dup5\n        /* \"#utility.yul\":10878:10889   */\n      add\n        /* \"#utility.yul\":10871:10910   */\n      mstore\n        /* \"#utility.yul\":10843:10845   */\n      0x20\n        /* \"#utility.yul\":10840:10841   */\n      dup2\n        /* \"#utility.yul\":10836:10846   */\n      add\n        /* \"#utility.yul\":10831:10846   */\n      swap1\n      pop\n        /* \"#utility.yul\":10807:10920   */\n      jump(tag_229)\n    tag_231:\n        /* \"#utility.yul\":10938:10944   */\n      dup4\n        /* \"#utility.yul\":10935:10936   */\n      dup2\n        /* \"#utility.yul\":10932:10945   */\n      gt\n        /* \"#utility.yul\":10929:10931   */\n      iszero\n      tag_232\n      jumpi\n        /* \"#utility.yul\":11018:11019   */\n      0x00\n        /* \"#utility.yul\":11009:11015   */\n      dup5\n        /* \"#utility.yul\":11004:11007   */\n      dup5\n        /* \"#utility.yul\":11000:11016   */\n      add\n        /* \"#utility.yul\":10993:11020   */\n      mstore\n        /* \"#utility.yul\":10929:10931   */\n    tag_232:\n        /* \"#utility.yul\":10778:11036   */\n      pop\n      pop\n      pop\n      pop\n      jump\t// out\n        /* \"#utility.yul\":11042:11362   */\n    tag_71:\n      0x00\n        /* \"#utility.yul\":11123:11124   */\n      0x02\n        /* \"#utility.yul\":11117:11121   */\n      dup3\n        /* \"#utility.yul\":11113:11125   */\n      div\n        /* \"#utility.yul\":11103:11125   */\n      swap1\n      pop\n        /* \"#utility.yul\":11170:11171   */\n      0x01\n        /* \"#utility.yul\":11164:11168   */\n      dup3\n        /* \"#utility.yul\":11160:11172   */\n      and\n        /* \"#utility.yul\":11191:11209   */\n      dup1\n        /* \"#utility.yul\":11181:11183   */\n      tag_234\n      jumpi\n        /* \"#utility.yul\":11247:11251   */\n      0x7f\n        /* \"#utility.yul\":11239:11245   */\n      dup3\n        /* \"#utility.yul\":11235:11252   */\n      and\n        /* \"#utility.yul\":11225:11252   */\n      swap2\n      pop\n        /* \"#utility.yul\":11181:11183   */\n    tag_234:\n        /* \"#utility.yul\":11309:11311   */\n      0x20\n        /* \"#utility.yul\":11301:11307   */\n      dup3\n        /* \"#utility.yul\":11298:11312   */\n      lt\n        /* \"#utility.yul\":11278:11296   */\n      dup2\n        /* \"#utility.yul\":11275:11313   */\n      eq\n        /* \"#utility.yul\":11272:11274   */\n      iszero\n      tag_235\n      jumpi\n        /* \"#utility.yul\":11328:11346   */\n      tag_236\n      tag_237\n      jump\t// in\n    tag_236:\n        /* \"#utility.yul\":11272:11274   */\n    tag_235:\n        /* \"#utility.yul\":11093:11362   */\n      pop\n      swap2\n      swap1\n      pop\n      jump\t// out\n        /* \"#utility.yul\":11368:11601   */\n    tag_81:\n      0x00\n        /* \"#utility.yul\":11430:11454   */\n      tag_239\n        /* \"#utility.yul\":11448:11453   */\n      dup3\n        /* \"#utility.yul\":11430:11454   */\n      tag_181\n      jump\t// in\n    tag_239:\n        /* \"#utility.yul\":11421:11454   */\n      swap2\n      pop\n        /* \"#utility.yul\":11476:11542   */\n      0xffffffffffffffffffffffffffffffffffffffffffffffffffffffffffffffff\n        /* \"#utility.yul\":11469:11474   */\n      dup3\n        /* \"#utility.yul\":11466:11543   */\n      eq\n        /* \"#utility.yul\":11463:11465   */\n      iszero\n      tag_240\n      jumpi\n        /* \"#utility.yul\":11546:11564   */\n      tag_241\n      tag_242\n      jump\t// in\n    tag_241:\n        /* \"#utility.yul\":11463:11465   */\n    tag_240:\n        /* \"#utility.yul\":11593:11594   */\n      0x01\n        /* \"#utility.yul\":11586:11591   */\n      dup3\n        /* \"#utility.yul\":11582:11595   */\n      add\n        /* \"#utility.yul\":11575:11595   */\n      swap1\n      pop\n        /* \"#utility.yul\":11411:11601   */\n      swap2\n      swap1\n      pop\n      jump\t// out\n        /* \"#utility.yul\":11607:11787   */\n    tag_242:\n        /* \"#utility.yul\":11655:11732   */\n      0x4e487b7100000000000000000000000000000000000000000000000000000000\n        /* \"#utility.yul\":11652:11653   */\n      0x00\n        /* \"#utility.yul\":11645:11733   */\n      mstore\n        /* \"#utility.yul\":11752:11756   */\n      0x11\n        /* \"#utility.yul\":11749:11750   */\n      0x04\n        /* \"#utility.yul\":11742:11757   */\n      mstore\n        /* \"#utility.yul\":11776:11780   */\n      0x24\n        /* \"#utility.yul\":11773:11774   */\n      0x00\n        /* \"#utility.yul\":11766:11781   */\n      revert\n        /* \"#utility.yul\":11793:11973   */\n    tag_220:\n        /* \"#utility.yul\":11841:11918   */\n      0x4e487b7100000000000000000000000000000000000000000000000000000000\n        /* \"#utility.yul\":11838:11839   */\n      0x00\n        /* \"#utility.yul\":11831:11919   */\n      mstore\n        /* \"#utility.yul\":11938:11942   */\n      0x12\n        /* \"#utility.yul\":11935:11936   */\n      0x04\n        /* \"#utility.yul\":11928:11943   */\n      mstore\n        /* \"#utility.yul\":11962:11966   */\n      0x24\n        /* \"#utility.yul\":11959:11960   */\n      0x00\n        /* \"#utility.yul\":11952:11967   */\n      revert\n        /* \"#utility.yul\":11979:12159   */\n    tag_237:\n        /* \"#utility.yul\":12027:12104   */\n      0x4e487b7100000000000000000000000000000000000000000000000000000000\n        /* \"#utility.yul\":12024:12025   */\n      0x00\n        /* \"#utility.yul\":12017:12105   */\n      mstore\n        /* \"#utility.yul\":12124:12128   */\n      0x22\n        /* \"#utility.yul\":12121:12122   */\n      0x04\n        /* \"#utility.yul\":12114:12129   */\n      mstore\n        /* \"#utility.yul\":12148:12152   */\n      0x24\n        /* \"#utility.yul\":12145:12146   */\n      0x00\n        /* \"#utility.yul\":12138:12153   */\n      revert\n        /* \"#utility.yul\":12165:12345   */\n    tag_209:\n        /* \"#utility.yul\":12213:12290   */\n      0x4e487b7100000000000000000000000000000000000000000000000000000000\n        /* \"#utility.yul\":12210:12211   */\n      0x00\n        /* \"#utility.yul\":12203:12291   */\n      mstore\n        /* \"#utility.yul\":12310:12314   */\n      0x41\n        /* \"#utility.yul\":12307:12308   */\n      0x04\n        /* \"#utility.yul\":12300:12315   */\n      mstore\n        /* \"#utility.yul\":12334:12338   */\n      0x24\n        /* \"#utility.yul\":12331:12332   */\n      0x00\n        /* \"#utility.yul\":12324:12339   */\n      revert\n        /* \"#utility.yul\":12351:12453   */\n    tag_159:\n      0x00\n        /* \"#utility.yul\":12443:12445   */\n      0x1f\n        /* \"#utility.yul\":12439:12446   */\n      not\n        /* \"#utility.yul\":12434:12436   */\n      0x1f\n        /* \"#utility.yul\":12427:12432   */\n      dup4\n        /* \"#utility.yul\":12423:12437   */\n      add\n        /* \"#utility.yul\":12419:12447   */\n      and\n        /* \"#utility.yul\":12409:12447   */\n      swap1\n      pop\n        /* \"#utility.yul\":12399:12453   */\n      swap2\n      swap1\n      pop\n      jump\t// out\n        /* \"#utility.yul\":12459:12581   */\n    tag_121:\n        /* \"#utility.yul\":12532:12556   */\n      tag_249\n        /* \"#utility.yul\":12550:12555   */\n      dup2\n        /* \"#utility.yul\":12532:12556   */\n      tag_145\n      jump\t// in\n    tag_249:\n        /* \"#utility.yul\":12525:12530   */\n      dup2\n        /* \"#utility.yul\":12522:12557   */\n      eq\n        /* \"#utility.yul\":12512:12514   */\n      tag_250\n      jumpi\n        /* \"#utility.yul\":12571:12572   */\n      0x00\n        /* \"#utility.yul\":12568:12569   */\n      dup1\n        /* \"#utility.yul\":12561:12573   */\n      revert\n        /* \"#utility.yul\":12512:12514   */\n    tag_250:\n        /* \"#utility.yul\":12502:12581   */\n      pop\n      jump\t// out\n        /* \"#utility.yul\":12587:12709   */\n    tag_129:\n        /* \"#utility.yul\":12660:12684   */\n      tag_252\n        /* \"#utility.yul\":12678:12683   */\n      dup2\n        /* \"#utility.yul\":12660:12684   */\n      tag_181\n      jump\t// in\n    tag_252:\n        /* \"#utility.yul\":12653:12658   */\n      dup2\n        /* \"#utility.yul\":12650:12685   */\n      eq\n        /* \"#utility.yul\":12640:12642   */\n      tag_253\n      jumpi\n        /* \"#utility.yul\":12699:12700   */\n      0x00\n        /* \"#utility.yul\":12696:12697   */\n      dup1\n        /* \"#utility.yul\":12689:12701   */\n      revert\n        /* \"#utility.yul\":12640:12642   */\n    tag_253:\n        /* \"#utility.yul\":12630:12709   */\n      pop\n      jump\t// out\n\n    auxdata: 0xa2646970667358221220ccc773eb95cd3ae042d461838abc9a90df8d8de36ffaf5c49d1d5c3a837d5a4f64736f6c63430008000033\n}\n","bytecode":{"linkReferences":{},"object":"60806040523480156200001157600080fd5b5060405162001356380380620013568339818101604052810190620000379190620000b4565b816000806101000a81548173ffffffffffffffffffffffffffffffffffffffff021916908373ffffffffffffffffffffffffffffffffffffffff16021790555080600181905550505062000167565b600081519050620000978162000133565b92915050565b600081519050620000ae816200014d565b92915050565b60008060408385031215620000c857600080fd5b6000620000d88582860162000086565b9250506020620000eb858286016200009d565b9150509250929050565b6000620001028262000109565b9050919050565b600073ffffffffffffffffffffffffffffffffffffffff82169050919050565b6000819050919050565b6200013e81620000f5565b81146200014a57600080fd5b50565b620001588162000129565b81146200016457600080fd5b50565b6111df80620001776000396000f3fe6080604052600436106100865760003560e01c806382fde0931161005957806382fde0931461015d5780638a9cfd5514610188578063aaffadf3146101b1578063d7bb99ba146101dc578063d7d1bbdb146101e657610086565b8063034410061461008b5780630a144391146100b4578063481c6a75146100f157806381d12c581461011c575b600080fd5b34801561009757600080fd5b506100b260048036038101906100ad9190610ae9565b61020f565b005b3480156100c057600080fd5b506100db60048036038101906100d69190610a59565b6103ea565b6040516100e89190610dab565b60405180910390f35b3480156100fd57600080fd5b5061010661040a565b6040516101139190610d90565b60405180910390f35b34801561012857600080fd5b50610143600480360381019061013e9190610ae9565b61042e565b604051610154959493929190610dc6565b60405180910390f35b34801561016957600080fd5b50610172610519565b60405161017f9190610ee0565b60405180910390f35b34801561019457600080fd5b506101af60048036038101906101aa9190610a82565b61051f565b005b3480156101bd57600080fd5b506101c661066c565b6040516101d39190610ee0565b60405180910390f35b6101e4610672565b005b3480156101f257600080fd5b5061020d60048036038101906102089190610ae9565b61077a565b005b60008054906101000a900473ffffffffffffffffffffffffffffffffffffffff1673ffffffffffffffffffffffffffffffffffffffff163373ffffffffffffffffffffffffffffffffffffffff161461029d576040517f08c379a000000000000000000000000000000000000000000000000000000000815260040161029490610e20565b60405180910390fd5b60006005600083815260200190815260200160002090508060020160149054906101000a900460ff1615610306576040517f08c379a00000000000000000000000000000000000000000000000000000000081526004016102fd90610ea0565b60405180910390fd5b60026003546103159190610f78565b81600401541161035a576040517f08c379a000000000000000000000000000000000000000000000000000000000815260040161035190610e40565b60405180910390fd5b8060020160009054906101000a900473ffffffffffffffffffffffffffffffffffffffff1673ffffffffffffffffffffffffffffffffffffffff166108fc82600101549081150290604051600060405180830381858888f193505050501580156103c8573d6000803e3d6000fd5b5060018160020160146101000a81548160ff0219169083151502179055505050565b60026020528060005260406000206000915054906101000a900460ff1681565b60008054906101000a900473ffffffffffffffffffffffffffffffffffffffff1681565b600560205280600052604060002060009150905080600001805461045190611033565b80601f016020809104026020016040519081016040528092919081815260200182805461047d90611033565b80156104ca5780601f1061049f576101008083540402835291602001916104ca565b820191906000526020600020905b8154815290600101906020018083116104ad57829003601f168201915b5050505050908060010154908060020160009054906101000a900473ffffffffffffffffffffffffffffffffffffffff16908060020160149054906101000a900460ff16908060040154905085565b60035481565b60008054906101000a900473ffffffffffffffffffffffffffffffffffffffff1673ffffffffffffffffffffffffffffffffffffffff163373ffffffffffffffffffffffffffffffffffffffff16146105ad576040517f08c379a00000000000000000000000000000000000000000000000000000000081526004016105a490610e20565b60405180910390fd5b600060056000600460008154809291906105c690611065565b9190505581526020019081526020016000209050838160000190805190602001906105f2929190610924565b50828160010181905550818160020160006101000a81548173ffffffffffffffffffffffffffffffffffffffff021916908373ffffffffffffffffffffffffffffffffffffffff16021790555060008160020160146101000a81548160ff0219169083151502179055506000816004018190555050505050565b60015481565b60015434116106b6576040517f08c379a00000000000000000000000000000000000000000000000000000000081526004016106ad90610ec0565b60405180910390fd5b600260003373ffffffffffffffffffffffffffffffffffffffff1673ffffffffffffffffffffffffffffffffffffffff16815260200190815260200160002060009054906101000a900460ff16610720576003600081548092919061071a90611065565b91905055505b6001600260003373ffffffffffffffffffffffffffffffffffffffff1673ffffffffffffffffffffffffffffffffffffffff16815260200190815260200160002060006101000a81548160ff021916908315150217905550565b600260003373ffffffffffffffffffffffffffffffffffffffff1673ffffffffffffffffffffffffffffffffffffffff16815260200190815260200160002060009054906101000a900460ff16610806576040517f08c379a00000000000000000000000000000000000000000000000000000000081526004016107fd90610e60565b60405180910390fd5b60006005600083815260200190815260200160002090508060030160003373ffffffffffffffffffffffffffffffffffffffff1673ffffffffffffffffffffffffffffffffffffffff16815260200190815260200160002060009054906101000a900460ff16156108ac576040517f08c379a00000000000000000000000000000000000000000000000000000000081526004016108a390610e80565b60405180910390fd5b60018160030160003373ffffffffffffffffffffffffffffffffffffffff1673ffffffffffffffffffffffffffffffffffffffff16815260200190815260200160002060006101000a81548160ff02191690831515021790555080600401600081548092919061091b90611065565b91905055505050565b82805461093090611033565b90600052602060002090601f0160209004810192826109525760008555610999565b82601f1061096b57805160ff1916838001178555610999565b82800160010185558215610999579182015b8281111561099857825182559160200191906001019061097d565b5b5090506109a691906109aa565b5090565b5b808211156109c35760008160009055506001016109ab565b5090565b60006109da6109d584610f2c565b610efb565b9050828152602081018484840111156109f257600080fd5b6109fd848285610ff1565b509392505050565b600081359050610a148161117b565b92915050565b600082601f830112610a2b57600080fd5b8135610a3b8482602086016109c7565b91505092915050565b600081359050610a5381611192565b92915050565b600060208284031215610a6b57600080fd5b6000610a7984828501610a05565b91505092915050565b600080600060608486031215610a9757600080fd5b600084013567ffffffffffffffff811115610ab157600080fd5b610abd86828701610a1a565b9350506020610ace86828701610a44565b9250506040610adf86828701610a05565b9150509250925092565b600060208284031215610afb57600080fd5b6000610b0984828501610a44565b91505092915050565b610b1b81610fa9565b82525050565b610b2a81610fbb565b82525050565b6000610b3b82610f5c565b610b458185610f67565b9350610b55818560208601611000565b610b5e8161116a565b840191505092915050565b6000610b76602783610f67565b91507f4f6e6c7920746865206d616e616765722063616e2063616c6c2074686973206660008301527f756e6374696f6e000000000000000000000000000000000000000000000000006020830152604082019050919050565b6000610bdc604083610f67565b91507f54686520726571756573742068617320746f20626520617070726f766564206260008301527f79206174206c656173742068616c662074686520636f6e7472696275746f72736020830152604082019050919050565b6000610c42601e83610f67565b91507f596f752063616e277420617070726f76652074686973207265717565737400006000830152602082019050919050565b6000610c82601e83610f67565b91507f596f7520616c726561647920766f7465642074686973207265717565737400006000830152602082019050919050565b6000610cc2602183610f67565b91507f54686520726571756573742077617320616c72656164792066696e616c697a6560008301527f64000000000000000000000000000000000000000000000000000000000000006020830152604082019050919050565b6000610d28603383610f67565b91507f596f752061726520747279696e6720746f20636f6e74726962757465206c657360008301527f73207468616e20746865206d696e696d756d2e000000000000000000000000006020830152604082019050919050565b610d8a81610fe7565b82525050565b6000602082019050610da56000830184610b12565b92915050565b6000602082019050610dc06000830184610b21565b92915050565b600060a0820190508181036000830152610de08188610b30565b9050610def6020830187610d81565b610dfc6040830186610b12565b610e096060830185610b21565b610e166080830184610d81565b9695505050505050565b60006020820190508181036000830152610e3981610b69565b9050919050565b60006020820190508181036000830152610e5981610bcf565b9050919050565b60006020820190508181036000830152610e7981610c35565b9050919050565b60006020820190508181036000830152610e9981610c75565b9050919050565b60006020820190508181036000830152610eb981610cb5565b9050919050565b60006020820190508181036000830152610ed981610d1b565b9050919050565b6000602082019050610ef56000830184610d81565b92915050565b6000604051905081810181811067ffffffffffffffff82111715610f2257610f2161113b565b5b8060405250919050565b600067ffffffffffffffff821115610f4757610f4661113b565b5b601f19601f8301169050602081019050919050565b600081519050919050565b600082825260208201905092915050565b6000610f8382610fe7565b9150610f8e83610fe7565b925082610f9e57610f9d6110dd565b5b828204905092915050565b6000610fb482610fc7565b9050919050565b60008115159050919050565b600073ffffffffffffffffffffffffffffffffffffffff82169050919050565b6000819050919050565b82818337600083830152505050565b60005b8381101561101e578082015181840152602081019050611003565b8381111561102d576000848401525b50505050565b6000600282049050600182168061104b57607f821691505b6020821081141561105f5761105e61110c565b5b50919050565b600061107082610fe7565b91507fffffffffffffffffffffffffffffffffffffffffffffffffffffffffffffffff8214156110a3576110a26110ae565b5b600182019050919050565b7f4e487b7100000000000000000000000000000000000000000000000000000000600052601160045260246000fd5b7f4e487b7100000000000000000000000000000000000000000000000000000000600052601260045260246000fd5b7f4e487b7100000000000000000000000000000000000000000000000000000000600052602260045260246000fd5b7f4e487b7100000000000000000000000000000000000000000000000000000000600052604160045260246000fd5b6000601f19601f8301169050919050565b61118481610fa9565b811461118f57600080fd5b50565b61119b81610fe7565b81146111a657600080fd5b5056fea2646970667358221220ccc773eb95cd3ae042d461838abc9a90df8d8de36ffaf5c49d1d5c3a837d5a4f64736f6c63430008000033","opcodes":"PUSH1 0x80 PUSH1 0x40 MSTORE CALLVALUE DUP1 ISZERO PUSH3 0x11 JUMPI PUSH1 0x0 DUP1 REVERT JUMPDEST POP PUSH1 0x40 MLOAD PUSH3 0x1356 CODESIZE SUB DUP1 PUSH3 0x1356 DUP4 CODECOPY DUP2 DUP2 ADD PUSH1 0x40 MSTORE DUP2 ADD SWAP1 PUSH3 0x37 SWAP2 SWAP1 PUSH3 0xB4 JUMP JUMPDEST DUP2 PUSH1 0x0 DUP1 PUSH2 0x100 EXP DUP2 SLOAD DUP2 PUSH20 0xFFFFFFFFFFFFFFFFFFFFFFFFFFFFFFFFFFFFFFFF MUL NOT AND SWAP1 DUP4 PUSH20 0xFFFFFFFFFFFFFFFFFFFFFFFFFFFFFFFFFFFFFFFF AND MUL OR SWAP1 SSTORE POP DUP1 PUSH1 0x1 DUP2 SWAP1 SSTORE POP POP POP PUSH3 0x167 JUMP JUMPDEST PUSH1 0x0 DUP2 MLOAD SWAP1 POP PUSH3 0x97 DUP2 PUSH3 0x133 JUMP JUMPDEST SWAP3 SWAP2 POP POP JUMP JUMPDEST PUSH1 0x0 DUP2 MLOAD SWAP1 POP PUSH3 0xAE DUP2 PUSH3 0x14D JUMP JUMPDEST SWAP3 SWAP2 POP POP JUMP JUMPDEST PUSH1 0x0 DUP1 PUSH1 0x40 DUP4 DUP6 SUB SLT ISZERO PUSH3 0xC8 JUMPI PUSH1 0x0 DUP1 REVERT JUMPDEST PUSH1 0x0 PUSH3 0xD8 DUP6 DUP3 DUP7 ADD PUSH3 0x86 JUMP JUMPDEST SWAP3 POP POP PUSH1 0x20 PUSH3 0xEB DUP6 DUP3 DUP7 ADD PUSH3 0x9D JUMP JUMPDEST SWAP2 POP POP SWAP3 POP SWAP3 SWAP1 POP JUMP JUMPDEST PUSH1 0x0 PUSH3 0x102 DUP3 PUSH3 0x109 JUMP JUMPDEST SWAP1 POP SWAP2 SWAP1 POP JUMP JUMPDEST PUSH1 0x0 PUSH20 0xFFFFFFFFFFFFFFFFFFFFFFFFFFFFFFFFFFFFFFFF DUP3 AND SWAP1 POP SWAP2 SWAP1 POP JUMP JUMPDEST PUSH1 0x0 DUP2 SWAP1 POP SWAP2 SWAP1 POP JUMP JUMPDEST PUSH3 0x13E DUP2 PUSH3 0xF5 JUMP JUMPDEST DUP2 EQ PUSH3 0x14A JUMPI PUSH1 0x0 DUP1 REVERT JUMPDEST POP JUMP JUMPDEST PUSH3 0x158 DUP2 PUSH3 0x129 JUMP JUMPDEST DUP2 EQ PUSH3 0x164 JUMPI PUSH1 0x0 DUP1 REVERT JUMPDEST POP JUMP JUMPDEST PUSH2 0x11DF DUP1 PUSH3 0x177 PUSH1 0x0 CODECOPY PUSH1 0x0 RETURN INVALID PUSH1 0x80 PUSH1 0x40 MSTORE PUSH1 0x4 CALLDATASIZE LT PUSH2 0x86 JUMPI PUSH1 0x0 CALLDATALOAD PUSH1 0xE0 SHR DUP1 PUSH4 0x82FDE093 GT PUSH2 0x59 JUMPI DUP1 PUSH4 0x82FDE093 EQ PUSH2 0x15D JUMPI DUP1 PUSH4 0x8A9CFD55 EQ PUSH2 0x188 JUMPI DUP1 PUSH4 0xAAFFADF3 EQ PUSH2 0x1B1 JUMPI DUP1 PUSH4 0xD7BB99BA EQ PUSH2 0x1DC JUMPI DUP1 PUSH4 0xD7D1BBDB EQ PUSH2 0x1E6 JUMPI PUSH2 0x86 JUMP JUMPDEST DUP1 PUSH4 0x3441006 EQ PUSH2 0x8B JUMPI DUP1 PUSH4 0xA144391 EQ PUSH2 0xB4 JUMPI DUP1 PUSH4 0x481C6A75 EQ PUSH2 0xF1 JUMPI DUP1 PUSH4 0x81D12C58 EQ PUSH2 0x11C JUMPI JUMPDEST PUSH1 0x0 DUP1 REVERT JUMPDEST CALLVALUE DUP1 ISZERO PUSH2 0x97 JUMPI PUSH1 0x0 DUP1 REVERT JUMPDEST POP PUSH2 0xB2 PUSH1 0x4 DUP1 CALLDATASIZE SUB DUP2 ADD SWAP1 PUSH2 0xAD SWAP2 SWAP1 PUSH2 0xAE9 JUMP JUMPDEST PUSH2 0x20F JUMP JUMPDEST STOP JUMPDEST CALLVALUE DUP1 ISZERO PUSH2 0xC0 JUMPI PUSH1 0x0 DUP1 REVERT JUMPDEST POP PUSH2 0xDB PUSH1 0x4 DUP1 CALLDATASIZE SUB DUP2 ADD SWAP1 PUSH2 0xD6 SWAP2 SWAP1 PUSH2 0xA59 JUMP JUMPDEST PUSH2 0x3EA JUMP JUMPDEST PUSH1 0x40 MLOAD PUSH2 0xE8 SWAP2 SWAP1 PUSH2 0xDAB JUMP JUMPDEST PUSH1 0x40 MLOAD DUP1 SWAP2 SUB SWAP1 RETURN JUMPDEST CALLVALUE DUP1 ISZERO PUSH2 0xFD JUMPI PUSH1 0x0 DUP1 REVERT JUMPDEST POP PUSH2 0x106 PUSH2 0x40A JUMP JUMPDEST PUSH1 0x40 MLOAD PUSH2 0x113 SWAP2 SWAP1 PUSH2 0xD90 JUMP JUMPDEST PUSH1 0x40 MLOAD DUP1 SWAP2 SUB SWAP1 RETURN JUMPDEST CALLVALUE DUP1 ISZERO PUSH2 0x128 JUMPI PUSH1 0x0 DUP1 REVERT JUMPDEST POP PUSH2 0x143 PUSH1 0x4 DUP1 CALLDATASIZE SUB DUP2 ADD SWAP1 PUSH2 0x13E SWAP2 SWAP1 PUSH2 0xAE9 JUMP JUMPDEST PUSH2 0x42E JUMP JUMPDEST PUSH1 0x40 MLOAD PUSH2 0x154 SWAP6 SWAP5 SWAP4 SWAP3 SWAP2 SWAP1 PUSH2 0xDC6 JUMP JUMPDEST PUSH1 0x40 MLOAD DUP1 SWAP2 SUB SWAP1 RETURN JUMPDEST CALLVALUE DUP1 ISZERO PUSH2 0x169 JUMPI PUSH1 0x0 DUP1 REVERT JUMPDEST POP PUSH2 0x172 PUSH2 0x519 JUMP JUMPDEST PUSH1 0x40 MLOAD PUSH2 0x17F SWAP2 SWAP1 PUSH2 0xEE0 JUMP JUMPDEST PUSH1 0x40 MLOAD DUP1 SWAP2 SUB SWAP1 RETURN JUMPDEST CALLVALUE DUP1 ISZERO PUSH2 0x194 JUMPI PUSH1 0x0 DUP1 REVERT JUMPDEST POP PUSH2 0x1AF PUSH1 0x4 DUP1 CALLDATASIZE SUB DUP2 ADD SWAP1 PUSH2 0x1AA SWAP2 SWAP1 PUSH2 0xA82 JUMP JUMPDEST PUSH2 0x51F JUMP JUMPDEST STOP JUMPDEST CALLVALUE DUP1 ISZERO PUSH2 0x1BD JUMPI PUSH1 0x0 DUP1 REVERT JUMPDEST POP PUSH2 0x1C6 PUSH2 0x66C JUMP JUMPDEST PUSH1 0x40 MLOAD PUSH2 0x1D3 SWAP2 SWAP1 PUSH2 0xEE0 JUMP JUMPDEST PUSH1 0x40 MLOAD DUP1 SWAP2 SUB SWAP1 RETURN JUMPDEST PUSH2 0x1E4 PUSH2 0x672 JUMP JUMPDEST STOP JUMPDEST CALLVALUE DUP1 ISZERO PUSH2 0x1F2 JUMPI PUSH1 0x0 DUP1 REVERT JUMPDEST POP PUSH2 0x20D PUSH1 0x4 DUP1 CALLDATASIZE SUB DUP2 ADD SWAP1 PUSH2 0x208 SWAP2 SWAP1 PUSH2 0xAE9 JUMP JUMPDEST PUSH2 0x77A JUMP JUMPDEST STOP JUMPDEST PUSH1 0x0 DUP1 SLOAD SWAP1 PUSH2 0x100 EXP SWAP1 DIV PUSH20 0xFFFFFFFFFFFFFFFFFFFFFFFFFFFFFFFFFFFFFFFF AND PUSH20 0xFFFFFFFFFFFFFFFFFFFFFFFFFFFFFFFFFFFFFFFF AND CALLER PUSH20 0xFFFFFFFFFFFFFFFFFFFFFFFFFFFFFFFFFFFFFFFF AND EQ PUSH2 0x29D JUMPI PUSH1 0x40 MLOAD PUSH32 0x8C379A000000000000000000000000000000000000000000000000000000000 DUP2 MSTORE PUSH1 0x4 ADD PUSH2 0x294 SWAP1 PUSH2 0xE20 JUMP JUMPDEST PUSH1 0x40 MLOAD DUP1 SWAP2 SUB SWAP1 REVERT JUMPDEST PUSH1 0x0 PUSH1 0x5 PUSH1 0x0 DUP4 DUP2 MSTORE PUSH1 0x20 ADD SWAP1 DUP2 MSTORE PUSH1 0x20 ADD PUSH1 0x0 KECCAK256 SWAP1 POP DUP1 PUSH1 0x2 ADD PUSH1 0x14 SWAP1 SLOAD SWAP1 PUSH2 0x100 EXP SWAP1 DIV PUSH1 0xFF AND ISZERO PUSH2 0x306 JUMPI PUSH1 0x40 MLOAD PUSH32 0x8C379A000000000000000000000000000000000000000000000000000000000 DUP2 MSTORE PUSH1 0x4 ADD PUSH2 0x2FD SWAP1 PUSH2 0xEA0 JUMP JUMPDEST PUSH1 0x40 MLOAD DUP1 SWAP2 SUB SWAP1 REVERT JUMPDEST PUSH1 0x2 PUSH1 0x3 SLOAD PUSH2 0x315 SWAP2 SWAP1 PUSH2 0xF78 JUMP JUMPDEST DUP2 PUSH1 0x4 ADD SLOAD GT PUSH2 0x35A JUMPI PUSH1 0x40 MLOAD PUSH32 0x8C379A000000000000000000000000000000000000000000000000000000000 DUP2 MSTORE PUSH1 0x4 ADD PUSH2 0x351 SWAP1 PUSH2 0xE40 JUMP JUMPDEST PUSH1 0x40 MLOAD DUP1 SWAP2 SUB SWAP1 REVERT JUMPDEST DUP1 PUSH1 0x2 ADD PUSH1 0x0 SWAP1 SLOAD SWAP1 PUSH2 0x100 EXP SWAP1 DIV PUSH20 0xFFFFFFFFFFFFFFFFFFFFFFFFFFFFFFFFFFFFFFFF AND PUSH20 0xFFFFFFFFFFFFFFFFFFFFFFFFFFFFFFFFFFFFFFFF AND PUSH2 0x8FC DUP3 PUSH1 0x1 ADD SLOAD SWAP1 DUP2 ISZERO MUL SWAP1 PUSH1 0x40 MLOAD PUSH1 0x0 PUSH1 0x40 MLOAD DUP1 DUP4 SUB DUP2 DUP6 DUP9 DUP9 CALL SWAP4 POP POP POP POP ISZERO DUP1 ISZERO PUSH2 0x3C8 JUMPI RETURNDATASIZE PUSH1 0x0 DUP1 RETURNDATACOPY RETURNDATASIZE PUSH1 0x0 REVERT JUMPDEST POP PUSH1 0x1 DUP2 PUSH1 0x2 ADD PUSH1 0x14 PUSH2 0x100 EXP DUP2 SLOAD DUP2 PUSH1 0xFF MUL NOT AND SWAP1 DUP4 ISZERO ISZERO MUL OR SWAP1 SSTORE POP POP POP JUMP JUMPDEST PUSH1 0x2 PUSH1 0x20 MSTORE DUP1 PUSH1 0x0 MSTORE PUSH1 0x40 PUSH1 0x0 KECCAK256 PUSH1 0x0 SWAP2 POP SLOAD SWAP1 PUSH2 0x100 EXP SWAP1 DIV PUSH1 0xFF AND DUP2 JUMP JUMPDEST PUSH1 0x0 DUP1 SLOAD SWAP1 PUSH2 0x100 EXP SWAP1 DIV PUSH20 0xFFFFFFFFFFFFFFFFFFFFFFFFFFFFFFFFFFFFFFFF AND DUP2 JUMP JUMPDEST PUSH1 0x5 PUSH1 0x20 MSTORE DUP1 PUSH1 0x0 MSTORE PUSH1 0x40 PUSH1 0x0 KECCAK256 PUSH1 0x0 SWAP2 POP SWAP1 POP DUP1 PUSH1 0x0 ADD DUP1 SLOAD PUSH2 0x451 SWAP1 PUSH2 0x1033 JUMP JUMPDEST DUP1 PUSH1 0x1F ADD PUSH1 0x20 DUP1 SWAP2 DIV MUL PUSH1 0x20 ADD PUSH1 0x40 MLOAD SWAP1 DUP2 ADD PUSH1 0x40 MSTORE DUP1 SWAP3 SWAP2 SWAP1 DUP2 DUP2 MSTORE PUSH1 0x20 ADD DUP3 DUP1 SLOAD PUSH2 0x47D SWAP1 PUSH2 0x1033 JUMP JUMPDEST DUP1 ISZERO PUSH2 0x4CA JUMPI DUP1 PUSH1 0x1F LT PUSH2 0x49F JUMPI PUSH2 0x100 DUP1 DUP4 SLOAD DIV MUL DUP4 MSTORE SWAP2 PUSH1 0x20 ADD SWAP2 PUSH2 0x4CA JUMP JUMPDEST DUP3 ADD SWAP2 SWAP1 PUSH1 0x0 MSTORE PUSH1 0x20 PUSH1 0x0 KECCAK256 SWAP1 JUMPDEST DUP2 SLOAD DUP2 MSTORE SWAP1 PUSH1 0x1 ADD SWAP1 PUSH1 0x20 ADD DUP1 DUP4 GT PUSH2 0x4AD JUMPI DUP3 SWAP1 SUB PUSH1 0x1F AND DUP3 ADD SWAP2 JUMPDEST POP POP POP POP POP SWAP1 DUP1 PUSH1 0x1 ADD SLOAD SWAP1 DUP1 PUSH1 0x2 ADD PUSH1 0x0 SWAP1 SLOAD SWAP1 PUSH2 0x100 EXP SWAP1 DIV PUSH20 0xFFFFFFFFFFFFFFFFFFFFFFFFFFFFFFFFFFFFFFFF AND SWAP1 DUP1 PUSH1 0x2 ADD PUSH1 0x14 SWAP1 SLOAD SWAP1 PUSH2 0x100 EXP SWAP1 DIV PUSH1 0xFF AND SWAP1 DUP1 PUSH1 0x4 ADD SLOAD SWAP1 POP DUP6 JUMP JUMPDEST PUSH1 0x3 SLOAD DUP2 JUMP JUMPDEST PUSH1 0x0 DUP1 SLOAD SWAP1 PUSH2 0x100 EXP SWAP1 DIV PUSH20 0xFFFFFFFFFFFFFFFFFFFFFFFFFFFFFFFFFFFFFFFF AND PUSH20 0xFFFFFFFFFFFFFFFFFFFFFFFFFFFFFFFFFFFFFFFF AND CALLER PUSH20 0xFFFFFFFFFFFFFFFFFFFFFFFFFFFFFFFFFFFFFFFF AND EQ PUSH2 0x5AD JUMPI PUSH1 0x40 MLOAD PUSH32 0x8C379A000000000000000000000000000000000000000000000000000000000 DUP2 MSTORE PUSH1 0x4 ADD PUSH2 0x5A4 SWAP1 PUSH2 0xE20 JUMP JUMPDEST PUSH1 0x40 MLOAD DUP1 SWAP2 SUB SWAP1 REVERT JUMPDEST PUSH1 0x0 PUSH1 0x5 PUSH1 0x0 PUSH1 0x4 PUSH1 0x0 DUP2 SLOAD DUP1 SWAP3 SWAP2 SWAP1 PUSH2 0x5C6 SWAP1 PUSH2 0x1065 JUMP JUMPDEST SWAP2 SWAP1 POP SSTORE DUP2 MSTORE PUSH1 0x20 ADD SWAP1 DUP2 MSTORE PUSH1 0x20 ADD PUSH1 0x0 KECCAK256 SWAP1 POP DUP4 DUP2 PUSH1 0x0 ADD SWAP1 DUP1 MLOAD SWAP1 PUSH1 0x20 ADD SWAP1 PUSH2 0x5F2 SWAP3 SWAP2 SWAP1 PUSH2 0x924 JUMP JUMPDEST POP DUP3 DUP2 PUSH1 0x1 ADD DUP2 SWAP1 SSTORE POP DUP2 DUP2 PUSH1 0x2 ADD PUSH1 0x0 PUSH2 0x100 EXP DUP2 SLOAD DUP2 PUSH20 0xFFFFFFFFFFFFFFFFFFFFFFFFFFFFFFFFFFFFFFFF MUL NOT AND SWAP1 DUP4 PUSH20 0xFFFFFFFFFFFFFFFFFFFFFFFFFFFFFFFFFFFFFFFF AND MUL OR SWAP1 SSTORE POP PUSH1 0x0 DUP2 PUSH1 0x2 ADD PUSH1 0x14 PUSH2 0x100 EXP DUP2 SLOAD DUP2 PUSH1 0xFF MUL NOT AND SWAP1 DUP4 ISZERO ISZERO MUL OR SWAP1 SSTORE POP PUSH1 0x0 DUP2 PUSH1 0x4 ADD DUP2 SWAP1 SSTORE POP POP POP POP POP JUMP JUMPDEST PUSH1 0x1 SLOAD DUP2 JUMP JUMPDEST PUSH1 0x1 SLOAD CALLVALUE GT PUSH2 0x6B6 JUMPI PUSH1 0x40 MLOAD PUSH32 0x8C379A000000000000000000000000000000000000000000000000000000000 DUP2 MSTORE PUSH1 0x4 ADD PUSH2 0x6AD SWAP1 PUSH2 0xEC0 JUMP JUMPDEST PUSH1 0x40 MLOAD DUP1 SWAP2 SUB SWAP1 REVERT JUMPDEST PUSH1 0x2 PUSH1 0x0 CALLER PUSH20 0xFFFFFFFFFFFFFFFFFFFFFFFFFFFFFFFFFFFFFFFF AND PUSH20 0xFFFFFFFFFFFFFFFFFFFFFFFFFFFFFFFFFFFFFFFF AND DUP2 MSTORE PUSH1 0x20 ADD SWAP1 DUP2 MSTORE PUSH1 0x20 ADD PUSH1 0x0 KECCAK256 PUSH1 0x0 SWAP1 SLOAD SWAP1 PUSH2 0x100 EXP SWAP1 DIV PUSH1 0xFF AND PUSH2 0x720 JUMPI PUSH1 0x3 PUSH1 0x0 DUP2 SLOAD DUP1 SWAP3 SWAP2 SWAP1 PUSH2 0x71A SWAP1 PUSH2 0x1065 JUMP JUMPDEST SWAP2 SWAP1 POP SSTORE POP JUMPDEST PUSH1 0x1 PUSH1 0x2 PUSH1 0x0 CALLER PUSH20 0xFFFFFFFFFFFFFFFFFFFFFFFFFFFFFFFFFFFFFFFF AND PUSH20 0xFFFFFFFFFFFFFFFFFFFFFFFFFFFFFFFFFFFFFFFF AND DUP2 MSTORE PUSH1 0x20 ADD SWAP1 DUP2 MSTORE PUSH1 0x20 ADD PUSH1 0x0 KECCAK256 PUSH1 0x0 PUSH2 0x100 EXP DUP2 SLOAD DUP2 PUSH1 0xFF MUL NOT AND SWAP1 DUP4 ISZERO ISZERO MUL OR SWAP1 SSTORE POP JUMP JUMPDEST PUSH1 0x2 PUSH1 0x0 CALLER PUSH20 0xFFFFFFFFFFFFFFFFFFFFFFFFFFFFFFFFFFFFFFFF AND PUSH20 0xFFFFFFFFFFFFFFFFFFFFFFFFFFFFFFFFFFFFFFFF AND DUP2 MSTORE PUSH1 0x20 ADD SWAP1 DUP2 MSTORE PUSH1 0x20 ADD PUSH1 0x0 KECCAK256 PUSH1 0x0 SWAP1 SLOAD SWAP1 PUSH2 0x100 EXP SWAP1 DIV PUSH1 0xFF AND PUSH2 0x806 JUMPI PUSH1 0x40 MLOAD PUSH32 0x8C379A000000000000000000000000000000000000000000000000000000000 DUP2 MSTORE PUSH1 0x4 ADD PUSH2 0x7FD SWAP1 PUSH2 0xE60 JUMP JUMPDEST PUSH1 0x40 MLOAD DUP1 SWAP2 SUB SWAP1 REVERT JUMPDEST PUSH1 0x0 PUSH1 0x5 PUSH1 0x0 DUP4 DUP2 MSTORE PUSH1 0x20 ADD SWAP1 DUP2 MSTORE PUSH1 0x20 ADD PUSH1 0x0 KECCAK256 SWAP1 POP DUP1 PUSH1 0x3 ADD PUSH1 0x0 CALLER PUSH20 0xFFFFFFFFFFFFFFFFFFFFFFFFFFFFFFFFFFFFFFFF AND PUSH20 0xFFFFFFFFFFFFFFFFFFFFFFFFFFFFFFFFFFFFFFFF AND DUP2 MSTORE PUSH1 0x20 ADD SWAP1 DUP2 MSTORE PUSH1 0x20 ADD PUSH1 0x0 KECCAK256 PUSH1 0x0 SWAP1 SLOAD SWAP1 PUSH2 0x100 EXP SWAP1 DIV PUSH1 0xFF AND ISZERO PUSH2 0x8AC JUMPI PUSH1 0x40 MLOAD PUSH32 0x8C379A000000000000000000000000000000000000000000000000000000000 DUP2 MSTORE PUSH1 0x4 ADD PUSH2 0x8A3 SWAP1 PUSH2 0xE80 JUMP JUMPDEST PUSH1 0x40 MLOAD DUP1 SWAP2 SUB SWAP1 REVERT JUMPDEST PUSH1 0x1 DUP2 PUSH1 0x3 ADD PUSH1 0x0 CALLER PUSH20 0xFFFFFFFFFFFFFFFFFFFFFFFFFFFFFFFFFFFFFFFF AND PUSH20 0xFFFFFFFFFFFFFFFFFFFFFFFFFFFFFFFFFFFFFFFF AND DUP2 MSTORE PUSH1 0x20 ADD SWAP1 DUP2 MSTORE PUSH1 0x20 ADD PUSH1 0x0 KECCAK256 PUSH1 0x0 PUSH2 0x100 EXP DUP2 SLOAD DUP2 PUSH1 0xFF MUL NOT AND SWAP1 DUP4 ISZERO ISZERO MUL OR SWAP1 SSTORE POP DUP1 PUSH1 0x4 ADD PUSH1 0x0 DUP2 SLOAD DUP1 SWAP3 SWAP2 SWAP1 PUSH2 0x91B SWAP1 PUSH2 0x1065 JUMP JUMPDEST SWAP2 SWAP1 POP SSTORE POP POP POP JUMP JUMPDEST DUP3 DUP1 SLOAD PUSH2 0x930 SWAP1 PUSH2 0x1033 JUMP JUMPDEST SWAP1 PUSH1 0x0 MSTORE PUSH1 0x20 PUSH1 0x0 KECCAK256 SWAP1 PUSH1 0x1F ADD PUSH1 0x20 SWAP1 DIV DUP2 ADD SWAP3 DUP3 PUSH2 0x952 JUMPI PUSH1 0x0 DUP6 SSTORE PUSH2 0x999 JUMP JUMPDEST DUP3 PUSH1 0x1F LT PUSH2 0x96B JUMPI DUP1 MLOAD PUSH1 0xFF NOT AND DUP4 DUP1 ADD OR DUP6 SSTORE PUSH2 0x999 JUMP JUMPDEST DUP3 DUP1 ADD PUSH1 0x1 ADD DUP6 SSTORE DUP3 ISZERO PUSH2 0x999 JUMPI SWAP2 DUP3 ADD JUMPDEST DUP3 DUP2 GT ISZERO PUSH2 0x998 JUMPI DUP3 MLOAD DUP3 SSTORE SWAP2 PUSH1 0x20 ADD SWAP2 SWAP1 PUSH1 0x1 ADD SWAP1 PUSH2 0x97D JUMP JUMPDEST JUMPDEST POP SWAP1 POP PUSH2 0x9A6 SWAP2 SWAP1 PUSH2 0x9AA JUMP JUMPDEST POP SWAP1 JUMP JUMPDEST JUMPDEST DUP1 DUP3 GT ISZERO PUSH2 0x9C3 JUMPI PUSH1 0x0 DUP2 PUSH1 0x0 SWAP1 SSTORE POP PUSH1 0x1 ADD PUSH2 0x9AB JUMP JUMPDEST POP SWAP1 JUMP JUMPDEST PUSH1 0x0 PUSH2 0x9DA PUSH2 0x9D5 DUP5 PUSH2 0xF2C JUMP JUMPDEST PUSH2 0xEFB JUMP JUMPDEST SWAP1 POP DUP3 DUP2 MSTORE PUSH1 0x20 DUP2 ADD DUP5 DUP5 DUP5 ADD GT ISZERO PUSH2 0x9F2 JUMPI PUSH1 0x0 DUP1 REVERT JUMPDEST PUSH2 0x9FD DUP5 DUP3 DUP6 PUSH2 0xFF1 JUMP JUMPDEST POP SWAP4 SWAP3 POP POP POP JUMP JUMPDEST PUSH1 0x0 DUP2 CALLDATALOAD SWAP1 POP PUSH2 0xA14 DUP2 PUSH2 0x117B JUMP JUMPDEST SWAP3 SWAP2 POP POP JUMP JUMPDEST PUSH1 0x0 DUP3 PUSH1 0x1F DUP4 ADD SLT PUSH2 0xA2B JUMPI PUSH1 0x0 DUP1 REVERT JUMPDEST DUP2 CALLDATALOAD PUSH2 0xA3B DUP5 DUP3 PUSH1 0x20 DUP7 ADD PUSH2 0x9C7 JUMP JUMPDEST SWAP2 POP POP SWAP3 SWAP2 POP POP JUMP JUMPDEST PUSH1 0x0 DUP2 CALLDATALOAD SWAP1 POP PUSH2 0xA53 DUP2 PUSH2 0x1192 JUMP JUMPDEST SWAP3 SWAP2 POP POP JUMP JUMPDEST PUSH1 0x0 PUSH1 0x20 DUP3 DUP5 SUB SLT ISZERO PUSH2 0xA6B JUMPI PUSH1 0x0 DUP1 REVERT JUMPDEST PUSH1 0x0 PUSH2 0xA79 DUP5 DUP3 DUP6 ADD PUSH2 0xA05 JUMP JUMPDEST SWAP2 POP POP SWAP3 SWAP2 POP POP JUMP JUMPDEST PUSH1 0x0 DUP1 PUSH1 0x0 PUSH1 0x60 DUP5 DUP7 SUB SLT ISZERO PUSH2 0xA97 JUMPI PUSH1 0x0 DUP1 REVERT JUMPDEST PUSH1 0x0 DUP5 ADD CALLDATALOAD PUSH8 0xFFFFFFFFFFFFFFFF DUP2 GT ISZERO PUSH2 0xAB1 JUMPI PUSH1 0x0 DUP1 REVERT JUMPDEST PUSH2 0xABD DUP7 DUP3 DUP8 ADD PUSH2 0xA1A JUMP JUMPDEST SWAP4 POP POP PUSH1 0x20 PUSH2 0xACE DUP7 DUP3 DUP8 ADD PUSH2 0xA44 JUMP JUMPDEST SWAP3 POP POP PUSH1 0x40 PUSH2 0xADF DUP7 DUP3 DUP8 ADD PUSH2 0xA05 JUMP JUMPDEST SWAP2 POP POP SWAP3 POP SWAP3 POP SWAP3 JUMP JUMPDEST PUSH1 0x0 PUSH1 0x20 DUP3 DUP5 SUB SLT ISZERO PUSH2 0xAFB JUMPI PUSH1 0x0 DUP1 REVERT JUMPDEST PUSH1 0x0 PUSH2 0xB09 DUP5 DUP3 DUP6 ADD PUSH2 0xA44 JUMP JUMPDEST SWAP2 POP POP SWAP3 SWAP2 POP POP JUMP JUMPDEST PUSH2 0xB1B DUP2 PUSH2 0xFA9 JUMP JUMPDEST DUP3 MSTORE POP POP JUMP JUMPDEST PUSH2 0xB2A DUP2 PUSH2 0xFBB JUMP JUMPDEST DUP3 MSTORE POP POP JUMP JUMPDEST PUSH1 0x0 PUSH2 0xB3B DUP3 PUSH2 0xF5C JUMP JUMPDEST PUSH2 0xB45 DUP2 DUP6 PUSH2 0xF67 JUMP JUMPDEST SWAP4 POP PUSH2 0xB55 DUP2 DUP6 PUSH1 0x20 DUP7 ADD PUSH2 0x1000 JUMP JUMPDEST PUSH2 0xB5E DUP2 PUSH2 0x116A JUMP JUMPDEST DUP5 ADD SWAP2 POP POP SWAP3 SWAP2 POP POP JUMP JUMPDEST PUSH1 0x0 PUSH2 0xB76 PUSH1 0x27 DUP4 PUSH2 0xF67 JUMP JUMPDEST SWAP2 POP PUSH32 0x4F6E6C7920746865206D616E616765722063616E2063616C6C20746869732066 PUSH1 0x0 DUP4 ADD MSTORE PUSH32 0x756E6374696F6E00000000000000000000000000000000000000000000000000 PUSH1 0x20 DUP4 ADD MSTORE PUSH1 0x40 DUP3 ADD SWAP1 POP SWAP2 SWAP1 POP JUMP JUMPDEST PUSH1 0x0 PUSH2 0xBDC PUSH1 0x40 DUP4 PUSH2 0xF67 JUMP JUMPDEST SWAP2 POP PUSH32 0x54686520726571756573742068617320746F20626520617070726F7665642062 PUSH1 0x0 DUP4 ADD MSTORE PUSH32 0x79206174206C656173742068616C662074686520636F6E7472696275746F7273 PUSH1 0x20 DUP4 ADD MSTORE PUSH1 0x40 DUP3 ADD SWAP1 POP SWAP2 SWAP1 POP JUMP JUMPDEST PUSH1 0x0 PUSH2 0xC42 PUSH1 0x1E DUP4 PUSH2 0xF67 JUMP JUMPDEST SWAP2 POP PUSH32 0x596F752063616E277420617070726F7665207468697320726571756573740000 PUSH1 0x0 DUP4 ADD MSTORE PUSH1 0x20 DUP3 ADD SWAP1 POP SWAP2 SWAP1 POP JUMP JUMPDEST PUSH1 0x0 PUSH2 0xC82 PUSH1 0x1E DUP4 PUSH2 0xF67 JUMP JUMPDEST SWAP2 POP PUSH32 0x596F7520616C726561647920766F746564207468697320726571756573740000 PUSH1 0x0 DUP4 ADD MSTORE PUSH1 0x20 DUP3 ADD SWAP1 POP SWAP2 SWAP1 POP JUMP JUMPDEST PUSH1 0x0 PUSH2 0xCC2 PUSH1 0x21 DUP4 PUSH2 0xF67 JUMP JUMPDEST SWAP2 POP PUSH32 0x54686520726571756573742077617320616C72656164792066696E616C697A65 PUSH1 0x0 DUP4 ADD MSTORE PUSH32 0x6400000000000000000000000000000000000000000000000000000000000000 PUSH1 0x20 DUP4 ADD MSTORE PUSH1 0x40 DUP3 ADD SWAP1 POP SWAP2 SWAP1 POP JUMP JUMPDEST PUSH1 0x0 PUSH2 0xD28 PUSH1 0x33 DUP4 PUSH2 0xF67 JUMP JUMPDEST SWAP2 POP PUSH32 0x596F752061726520747279696E6720746F20636F6E74726962757465206C6573 PUSH1 0x0 DUP4 ADD MSTORE PUSH32 0x73207468616E20746865206D696E696D756D2E00000000000000000000000000 PUSH1 0x20 DUP4 ADD MSTORE PUSH1 0x40 DUP3 ADD SWAP1 POP SWAP2 SWAP1 POP JUMP JUMPDEST PUSH2 0xD8A DUP2 PUSH2 0xFE7 JUMP JUMPDEST DUP3 MSTORE POP POP JUMP JUMPDEST PUSH1 0x0 PUSH1 0x20 DUP3 ADD SWAP1 POP PUSH2 0xDA5 PUSH1 0x0 DUP4 ADD DUP5 PUSH2 0xB12 JUMP JUMPDEST SWAP3 SWAP2 POP POP JUMP JUMPDEST PUSH1 0x0 PUSH1 0x20 DUP3 ADD SWAP1 POP PUSH2 0xDC0 PUSH1 0x0 DUP4 ADD DUP5 PUSH2 0xB21 JUMP JUMPDEST SWAP3 SWAP2 POP POP JUMP JUMPDEST PUSH1 0x0 PUSH1 0xA0 DUP3 ADD SWAP1 POP DUP2 DUP2 SUB PUSH1 0x0 DUP4 ADD MSTORE PUSH2 0xDE0 DUP2 DUP9 PUSH2 0xB30 JUMP JUMPDEST SWAP1 POP PUSH2 0xDEF PUSH1 0x20 DUP4 ADD DUP8 PUSH2 0xD81 JUMP JUMPDEST PUSH2 0xDFC PUSH1 0x40 DUP4 ADD DUP7 PUSH2 0xB12 JUMP JUMPDEST PUSH2 0xE09 PUSH1 0x60 DUP4 ADD DUP6 PUSH2 0xB21 JUMP JUMPDEST PUSH2 0xE16 PUSH1 0x80 DUP4 ADD DUP5 PUSH2 0xD81 JUMP JUMPDEST SWAP7 SWAP6 POP POP POP POP POP POP JUMP JUMPDEST PUSH1 0x0 PUSH1 0x20 DUP3 ADD SWAP1 POP DUP2 DUP2 SUB PUSH1 0x0 DUP4 ADD MSTORE PUSH2 0xE39 DUP2 PUSH2 0xB69 JUMP JUMPDEST SWAP1 POP SWAP2 SWAP1 POP JUMP JUMPDEST PUSH1 0x0 PUSH1 0x20 DUP3 ADD SWAP1 POP DUP2 DUP2 SUB PUSH1 0x0 DUP4 ADD MSTORE PUSH2 0xE59 DUP2 PUSH2 0xBCF JUMP JUMPDEST SWAP1 POP SWAP2 SWAP1 POP JUMP JUMPDEST PUSH1 0x0 PUSH1 0x20 DUP3 ADD SWAP1 POP DUP2 DUP2 SUB PUSH1 0x0 DUP4 ADD MSTORE PUSH2 0xE79 DUP2 PUSH2 0xC35 JUMP JUMPDEST SWAP1 POP SWAP2 SWAP1 POP JUMP JUMPDEST PUSH1 0x0 PUSH1 0x20 DUP3 ADD SWAP1 POP DUP2 DUP2 SUB PUSH1 0x0 DUP4 ADD MSTORE PUSH2 0xE99 DUP2 PUSH2 0xC75 JUMP JUMPDEST SWAP1 POP SWAP2 SWAP1 POP JUMP JUMPDEST PUSH1 0x0 PUSH1 0x20 DUP3 ADD SWAP1 POP DUP2 DUP2 SUB PUSH1 0x0 DUP4 ADD MSTORE PUSH2 0xEB9 DUP2 PUSH2 0xCB5 JUMP JUMPDEST SWAP1 POP SWAP2 SWAP1 POP JUMP JUMPDEST PUSH1 0x0 PUSH1 0x20 DUP3 ADD SWAP1 POP DUP2 DUP2 SUB PUSH1 0x0 DUP4 ADD MSTORE PUSH2 0xED9 DUP2 PUSH2 0xD1B JUMP JUMPDEST SWAP1 POP SWAP2 SWAP1 POP JUMP JUMPDEST PUSH1 0x0 PUSH1 0x20 DUP3 ADD SWAP1 POP PUSH2 0xEF5 PUSH1 0x0 DUP4 ADD DUP5 PUSH2 0xD81 JUMP JUMPDEST SWAP3 SWAP2 POP POP JUMP JUMPDEST PUSH1 0x0 PUSH1 0x40 MLOAD SWAP1 POP DUP2 DUP2 ADD DUP2 DUP2 LT PUSH8 0xFFFFFFFFFFFFFFFF DUP3 GT OR ISZERO PUSH2 0xF22 JUMPI PUSH2 0xF21 PUSH2 0x113B JUMP JUMPDEST JUMPDEST DUP1 PUSH1 0x40 MSTORE POP SWAP2 SWAP1 POP JUMP JUMPDEST PUSH1 0x0 PUSH8 0xFFFFFFFFFFFFFFFF DUP3 GT ISZERO PUSH2 0xF47 JUMPI PUSH2 0xF46 PUSH2 0x113B JUMP JUMPDEST JUMPDEST PUSH1 0x1F NOT PUSH1 0x1F DUP4 ADD AND SWAP1 POP PUSH1 0x20 DUP2 ADD SWAP1 POP SWAP2 SWAP1 POP JUMP JUMPDEST PUSH1 0x0 DUP2 MLOAD SWAP1 POP SWAP2 SWAP1 POP JUMP JUMPDEST PUSH1 0x0 DUP3 DUP3 MSTORE PUSH1 0x20 DUP3 ADD SWAP1 POP SWAP3 SWAP2 POP POP JUMP JUMPDEST PUSH1 0x0 PUSH2 0xF83 DUP3 PUSH2 0xFE7 JUMP JUMPDEST SWAP2 POP PUSH2 0xF8E DUP4 PUSH2 0xFE7 JUMP JUMPDEST SWAP3 POP DUP3 PUSH2 0xF9E JUMPI PUSH2 0xF9D PUSH2 0x10DD JUMP JUMPDEST JUMPDEST DUP3 DUP3 DIV SWAP1 POP SWAP3 SWAP2 POP POP JUMP JUMPDEST PUSH1 0x0 PUSH2 0xFB4 DUP3 PUSH2 0xFC7 JUMP JUMPDEST SWAP1 POP SWAP2 SWAP1 POP JUMP JUMPDEST PUSH1 0x0 DUP2 ISZERO ISZERO SWAP1 POP SWAP2 SWAP1 POP JUMP JUMPDEST PUSH1 0x0 PUSH20 0xFFFFFFFFFFFFFFFFFFFFFFFFFFFFFFFFFFFFFFFF DUP3 AND SWAP1 POP SWAP2 SWAP1 POP JUMP JUMPDEST PUSH1 0x0 DUP2 SWAP1 POP SWAP2 SWAP1 POP JUMP JUMPDEST DUP3 DUP2 DUP4 CALLDATACOPY PUSH1 0x0 DUP4 DUP4 ADD MSTORE POP POP POP JUMP JUMPDEST PUSH1 0x0 JUMPDEST DUP4 DUP2 LT ISZERO PUSH2 0x101E JUMPI DUP1 DUP3 ADD MLOAD DUP2 DUP5 ADD MSTORE PUSH1 0x20 DUP2 ADD SWAP1 POP PUSH2 0x1003 JUMP JUMPDEST DUP4 DUP2 GT ISZERO PUSH2 0x102D JUMPI PUSH1 0x0 DUP5 DUP5 ADD MSTORE JUMPDEST POP POP POP POP JUMP JUMPDEST PUSH1 0x0 PUSH1 0x2 DUP3 DIV SWAP1 POP PUSH1 0x1 DUP3 AND DUP1 PUSH2 0x104B JUMPI PUSH1 0x7F DUP3 AND SWAP2 POP JUMPDEST PUSH1 0x20 DUP3 LT DUP2 EQ ISZERO PUSH2 0x105F JUMPI PUSH2 0x105E PUSH2 0x110C JUMP JUMPDEST JUMPDEST POP SWAP2 SWAP1 POP JUMP JUMPDEST PUSH1 0x0 PUSH2 0x1070 DUP3 PUSH2 0xFE7 JUMP JUMPDEST SWAP2 POP PUSH32 0xFFFFFFFFFFFFFFFFFFFFFFFFFFFFFFFFFFFFFFFFFFFFFFFFFFFFFFFFFFFFFFFF DUP3 EQ ISZERO PUSH2 0x10A3 JUMPI PUSH2 0x10A2 PUSH2 0x10AE JUMP JUMPDEST JUMPDEST PUSH1 0x1 DUP3 ADD SWAP1 POP SWAP2 SWAP1 POP JUMP JUMPDEST PUSH32 0x4E487B7100000000000000000000000000000000000000000000000000000000 PUSH1 0x0 MSTORE PUSH1 0x11 PUSH1 0x4 MSTORE PUSH1 0x24 PUSH1 0x0 REVERT JUMPDEST PUSH32 0x4E487B7100000000000000000000000000000000000000000000000000000000 PUSH1 0x0 MSTORE PUSH1 0x12 PUSH1 0x4 MSTORE PUSH1 0x24 PUSH1 0x0 REVERT JUMPDEST PUSH32 0x4E487B7100000000000000000000000000000000000000000000000000000000 PUSH1 0x0 MSTORE PUSH1 0x22 PUSH1 0x4 MSTORE PUSH1 0x24 PUSH1 0x0 REVERT JUMPDEST PUSH32 0x4E487B7100000000000000000000000000000000000000000000000000000000 PUSH1 0x0 MSTORE PUSH1 0x41 PUSH1 0x4 MSTORE PUSH1 0x24 PUSH1 0x0 REVERT JUMPDEST PUSH1 0x0 PUSH1 0x1F NOT PUSH1 0x1F DUP4 ADD AND SWAP1 POP SWAP2 SWAP1 POP JUMP JUMPDEST PUSH2 0x1184 DUP2 PUSH2 0xFA9 JUMP JUMPDEST DUP2 EQ PUSH2 0x118F JUMPI PUSH1 0x0 DUP1 REVERT JUMPDEST POP JUMP JUMPDEST PUSH2 0x119B DUP2 PUSH2 0xFE7 JUMP JUMPDEST DUP2 EQ PUSH2 0x11A6 JUMPI PUSH1 0x0 DUP1 REVERT JUMPDEST POP JUMP INVALID LOG2 PUSH5 0x6970667358 0x22 SLT KECCAK256 0xCC 0xC7 PUSH20 0xEB95CD3AE042D461838ABC9A90DF8D8DE36FFAF5 0xC4 SWAP14 SAR 0x5C GASPRICE DUP4 PUSH30 0x5A4F64736F6C634300080000330000000000000000000000000000000000 "},"gasEstimates":{"creation":{"codeDepositCost":"915000","executionCost":"infinite","totalCost":"infinite"},"external":{"approveRequest(uint256)":"infinite","approvers(address)":"1568","approversCount()":"1129","contribute()":"43866","createRequest(string,uint256,address)":"infinite","finalizeRequest(uint256)":"infinite","manager()":"1256","minContribution()":"1173","requests(uint256)":"infinite"}},"methodIdentifiers":{"approveRequest(uint256)":"d7d1bbdb","approvers(address)":"0a144391","approversCount()":"82fde093","contribute()":"d7bb99ba","createRequest(string,uint256,address)":"8a9cfd55","finalizeRequest(uint256)":"03441006","manager()":"481c6a75","minContribution()":"aaffadf3","requests(uint256)":"81d12c58"}},"storageLayout":{"storage":[{"astId":52,"contract":"Campaign.sol:Campaign","label":"manager","offset":0,"slot":"0","type":"t_address"},{"astId":54,"contract":"Campaign.sol:Campaign","label":"minContribution","offset":0,"slot":"1","type":"t_uint256"},{"astId":58,"contract":"Campaign.sol:Campaign","label":"approvers","offset":0,"slot":"2","type":"t_mapping(t_address,t_bool)"},{"astId":60,"contract":"Campaign.sol:Campaign","label":"approversCount","offset":0,"slot":"3","type":"t_uint256"},{"astId":62,"contract":"Campaign.sol:Campaign","label":"numRequests","offset":0,"slot":"4","type":"t_uint256"},{"astId":67,"contract":"Campaign.sol:Campaign","label":"requests","offset":0,"slot":"5","type":"t_mapping(t_uint256,t_struct(Request)50_storage)"}],"types":{"t_address":{"encoding":"inplace","label":"address","numberOfBytes":"20"},"t_bool":{"encoding":"inplace","label":"bool","numberOfBytes":"1"},"t_mapping(t_address,t_bool)":{"encoding":"mapping","key":"t_address","label":"mapping(address => bool)","numberOfBytes":"32","value":"t_bool"},"t_mapping(t_uint256,t_struct(Request)50_storage)":{"encoding":"mapping","key":"t_uint256","label":"mapping(uint256 => struct Campaign.Request)","numberOfBytes":"32","value":"t_struct(Request)50_storage"},"t_string_storage":{"encoding":"bytes","label":"string","numberOfBytes":"32"},"t_struct(Request)50_storage":{"encoding":"inplace","label":"struct Campaign.Request","members":[{"astId":37,"contract":"Campaign.sol:Campaign","label":"description","offset":0,"slot":"0","type":"t_string_storage"},{"astId":39,"contract":"Campaign.sol:Campaign","label":"value","offset":0,"slot":"1","type":"t_uint256"},{"astId":41,"contract":"Campaign.sol:Campaign","label":"recipient","offset":0,"slot":"2","type":"t_address"},{"astId":43,"contract":"Campaign.sol:Campaign","label":"complete","offset":20,"slot":"2","type":"t_bool"},{"astId":47,"contract":"Campaign.sol:Campaign","label":"approvals","offset":0,"slot":"3","type":"t_mapping(t_address,t_bool)"},{"astId":49,"contract":"Campaign.sol:Campaign","label":"approvalCount","offset":0,"slot":"4","type":"t_uint256"}],"numberOfBytes":"160"},"t_uint256":{"encoding":"inplace","label":"uint256","numberOfBytes":"32"}}},"userdoc":{"kind":"user","methods":{},"version":1}}